:100000000C943C030C9464030C9464030C946403FC
:100010000C9464030C9464030C9464030C946403C4
:100020000C9464030C9464030C9464030C946403B4
:100030000C9464030C9464030C9464030C946403A4
:100040000C94A2330C9464030C9469130C94A513C0
:100050000C9464030C9464030C9464030C94640384
:100060000C9464030C946403084AD73B3BCE016EA6
:1000700084BCBFFDC12F3D6C74319ABD56833DDAFF
:100080003D00C77F11BED9E4BB4C3E916BAAAABE0E
:10009000000000803F05A84CCDB2D44EB93836A937
:1000A000020C50B9918688083CA6AAAA2ABE000074
:1000B00000803F0664EC1B3C04BC163E3BE5B93CAB
:1000C000C93C37C29E5A3D660498083EEA69AAAA0E
:1000D0003E000000803F0000000000000000000023
:1000E0000000000000000000000000000000000010
:1000F0000000000000000000000000000000000000
:1001000000000000000000000101000001010000EB
:1001100001010000000000000000000001010000DB
:1001200000000000000000000000000000000000CF
:1001300000000000000000000000010101010100BA
:1001400000000000000000000000000000000101AD
:100150000101010101010000000000000000000099
:10016000000000000000000000000000010101018B
:100170000101010101010000000000000000000079
:10018000000000000000000000000000000000006F
:10019000000000000000000000000000000001015D
:1001A0000101010101010101000000000000000047
:1001B000000000000000000000000000000000003F
:1001C000000000000000000000000000000000002F
:1001D0000101010101010101000000000000000017
:1001E000000000000000000000000000000000000F
:1001F00000000000000000000000000000000000FF
:1002000000000101010101010101010101000000E3
:1002100000010000000000000000000000000000DD
:1002200000000000000000000000000000000000CE
:1002300000000000010101010101010101010101B2
:1002400001010101010101010000000000000000A6
:10025000000000000000000000000000000000009E
:100260000000000000000101010101010101010184
:10027000000000000001000000000100000000007C
:10028000000000000000000000000000000001006D
:100290000000000000000000010101010101010156
:1002A0000101000100010001000100010100000046
:1002B000000000000000000000000000000000003E
:1002C000010000000000000000000101000000002B
:1002D000000000000000000000000000010101001B
:1002E000000000010000000000000000000000000D
:1002F00000000100000100000000000000010000FB
:1003000001010000010001000001000001000000E7
:1003100001000001000001000000000000000000DA
:1003200000000000010100000000010100000001C8
:1003300000000101000001000100000100000100B7
:1003400000000100000100000100000000000000AA
:100350000000000000000101000100010100010097
:100360000101000000000000000000000101000089
:10037000000000000000000000010100000000007B
:10038000000000000000000000000000000000016C
:10039000010001010101010101010101010101014E
:1003A000010000000000000000000000000000004C
:1003B000000000000000000000000000010000003C
:1003C0000000000001010101010101010101010121
:1003D000010101000000000000000000000000001A
:1003E000000000000000000000000000000001000C
:1003F0000000000000007F206661696C7361666523
:10040000007F007F20727468007F206D69737369BC
:100410006F6E007F20706F73686F6C64007F206167
:100420006C74686F6C64007F206D616E75616C0028
:100430007F2061726D6564007F20696E6974007F42
:100440002064697361726D65640014001200862077
:100450000017001800537461746973746963730042
:1004600053797374656D206D6F64653A204E5453F3
:10047000430053797374656D206D6F64653A205045
:10048000414C004E6F2074656C656D657472792007
:10049000646174612066726F6D2041512100496E64
:1004A000697469616C697A696E67202E2E2E0088E6
:1004B000898A8B7C8C8D8E8F20627920626C757519
:1004C000752076302E3120616C66617CB0B1B2B39C
:1004D000004F53442047656E657261746F7200432C
:1004E00068617220446F6E650A005265616479200C
:1004F000666F7220466F6E740A0055706461746591
:1005000020436861725365740064656D6F6E737427
:10051000726174696F6E0000407A10F35A00A07225
:100520004E18090010A5D4E80000E876481700002E
:10053000E40B54020000CA9A3B000000E1F50500FC
:100540000080969800000040420F000000A0860145
:10055000000000102700000000E803000000006415
:1005600000000000000A0000000000010000000080
:10057000002C76D888DC674F0823DFC1DFAE59E155
:10058000B1B796E5E3E453C63AE651997696E8E6C4
:10059000C28426EB898C9B62ED407C6FFCEFBC9C97
:1005A0009F40F2BAA56FA5F490055A2AF75C936BA9
:1005B0006CF9676DC11BFCE0E40D47FEF520E6B564
:1005C00000D0ED902E0300943577050080841E083E
:1005D0000000204E0A000000C80C333333330F985C
:1005E0006E12831141EF8D2114893BE65516CFFE23
:1005F000E6DB18D1844B381BF77C1D901DA4BBE4AF
:1006000024203284725E228100C9F124ECA1E53DF0
:10061000276E616E00696E660000000000240027EE
:10062000002A0000000000250028002B0000000028
:100630000023002600290004040404040404040226
:10064000020202020203030303030301020408106F
:10065000204080010204081020010204081020003C
:100660000000070002010000030406000000000073
:1006700000000000F3130F2B11241FBECFEFD8E0B2
:10068000DEBFCDBF14E0A0E0B1E0E6E0F4E702C0D9
:1006900005900D92A43CB107D9F716E0A4ECB4E0A4
:1006A00001C01D92AC31B107E1F716E0C8E7D6E012
:1006B00004C02297FE010E94FD39C437D107C9F753
:1006C0000E9444350C94013A0C940000283008F044
:1006D00027E03327DA01990F311D87FD91600096DD
:1006E0006105710539F432602E5F3D9330E32A9540
:1006F000E1F708959F3F30F080387105610509F0FA
:100700003C5F3C5F3D93913008F08068911DDF9322
:10071000CF931F930F93FF92EF92192F987F969587
:10072000E92F96959695E90FFF27EF58FA4F9927ED
:100730003327EE24FF24A701E701059008940794CE
:1007400028F4360FE71EF81E491F511D660F771F4C
:10075000881F991F0694A1F70590079428F4E70EC7
:10076000F81E491F561FC11D770F881F991F661F4E
:100770000694A1F70590079428F4F80E491F561F18
:10078000C71FD11D880F991F661F771F0694A1F7F9
:100790000590079420F4490F561FC71FD81F990FC3
:1007A000661F771F881F0694A9F78491109517700C
:1007B00041F0D695C79557954795F794E7941A95C4
:1007C000C1F7E7E1F5E068941590159135916591D1
:1007D000959105907FE27395E118F10A430B560B52
:1007E000C90BD009C0F7E10CF11E431F561FC91FEA
:1007F000D01D7EF4703311F48A95E6CFE894015051
:1008000030F0080F0AF40027021708F4202F239570
:10081000022F7A3328F079E37D932A95E9F710C007
:100820007D932A9589F60694979567953795179540
:100830001794E118F10A430B560BC90BD00998F035
:1008400023957E9173957A3308F070E37C9320139F
:10085000B8F77E9170617D9330F0839571E37D935D
:1008600070E32A95E1F71124EF90FF900F911F910B
:10087000CF91DF91992787FD90950895FA01AA27D6
:10088000283051F1203181F1E8946F936E7F6E5FD3
:100890007F4F8F4F9F4FAF4FB1E03ED0B4E03CD081
:1008A000670F781F891F9A1FA11D680F791F8A1F64
:1008B000911DA11D6A0F711D811D911DA11D20D0CB
:1008C00009F468943F912AE0269F11243019305D85
:1008D0003193DEF6CF010895462F4770405D419376
:1008E000B3E00FD0C9F7F6CF462F4F70405D4A33C3
:1008F00018F0495D31FD4052419302D0A9F7EACF8B
:10090000B4E0A6959795879577956795BA95C9F7B9
:1009100000976105710508959B01AC010A2E0694AC
:100920005795479537952795BA95C9F7620F731F65
:10093000841F951FA01D0895AEE5B0E0E2EAF4E043
:100940000C94C439A8E04E010894811C911CF40158
:100950006A2E11926A94E9F729833A834B835C8368
:100960006D837E838F839887CE010996FC01119257
:10097000AA95E9F7A986BA86CB86DC86ED86FE863F
:100980000F87188B29843A844B845C84ED84FE8421
:100990000F85188969807A808B809C806DA67EA6E1
:1009A0008FA698AA6D807E808F809884E114F104D0
:1009B0000105110509F0B3C362147304840495049E
:1009C00008F03DC100E0201600E0300601E04006DE
:1009D00000E0500688F41FEF211631044104510451
:1009E00039F030F048E0E42EF12C012D112D18C023
:1009F000EE24FF24870114C020E0221620E03206F6
:100A000020E0420621E0520630F038E1E32EF12CDE
:100A1000012D112D05C020E1E22EF12C012D112D0B
:100A2000D201C1010E2C04C0B695A7959795879564
:100A30000A94D2F781589D4FDC012C9180E290E01E
:100A4000A0E0B0E08E199F09A00BB10B7C018D01D5
:100A5000E21AF10801091109E114F1040105110577
:100A6000A1F10E2C04C0220C331C441C551C0A940A
:100A7000D2F7A40193010E2C04C0220F331F441F90
:100A8000551F0A94D2F780E290E08E199F096DA459
:100A90007EA48FA498A804C09694879477946794B2
:100AA0008A95D2F7622A732A842A952AADA4BEA415
:100AB000CFA4D8A804C0AA0CBB1CCC1CDD1CEA9493
:100AC000D2F7ADA6BEA6CFA6D8AA6201EE24FF2417
:100AD000CDAADEAAEFAAF8AE920181012070307093
:100AE00009AF1AAF2BAF3CAFC401B301A701960108
:100AF0000E9473397B018C01C401B3012DA93EA969
:100B00004FA958AD0E947339C901DA013C014D016A
:100B1000C401B30129AD3AAD4BAD5CAD0E94413982
:100B20009B01AC018701FF24EE24ADA4BEA4CFA499
:100B3000D8A8C601AA27BB2757016801A82AB92A45
:100B4000CA2ADB2AA216B306C406D506E0F4089426
:100B50006108710881089108A20CB31CC41CD51C43
:100B6000A214B304C404D50470F0A216B306C406DC
:100B7000D50648F408946108710881089108A20C10
:100B8000B31CC41CD51CA21AB30AC40AD50AC601D8
:100B9000B5012DA93EA94FA958AD0E9473397B011B
:100BA0008C01C601B5012DA93EA94FA958AD0E94DF
:100BB0007339C901DA015C016D01C601B50129ADC6
:100BC0003AAD4BAD5CAD0E9441399B01AC01870150
:100BD000FF24EE248DA59EA5AFA5B8A9A070B07086
:100BE000E82AF92A0A2B1B2BE216F306040715073D
:100BF000C0F40894A108B108C108D108E20CF31CA4
:100C0000041D151DE214F3040405150550F0E21649
:100C1000F3060407150728F40894A108B108C108D1
:100C2000D108D3019927882786017501E82AF92A76
:100C30000A2B1B2BE9AAFAAA0BAB1CABCFC42114BD
:100C400031044104510471F461E070E080E090E00F
:100C500020E030E040E050E00E947339C901DA0141
:100C60001C012D0100E0201600E0300601E04006E6
:100C700000E0500688F41FEF2116310441045104AE
:100C800031F028F048E050E060E070E017C040E04C
:100C900050E060E070E012C020E0221620E0320652
:100CA00020E0420621E0520628F048E150E060E0F2
:100CB00070E004C040E150E060E070E0D201C101AA
:100CC000042E04C0B695A795979587950A94D2F7F8
:100CD00081589D4FDC012C91E0E2EE2EF12C012D8C
:100CE000112DD801C701841B950BA60BB70B821BD6
:100CF0009109A109B1090097A105B10561F4640149
:100D00005301A218B308C408D50831E0632E712C32
:100D1000812C912C1EC16F968FAF6F97082E04C047
:100D2000220C331C441C551C0A94D2F7EE2DE81BF0
:100D3000640153010E2E04C0D694C794B794A794AF
:100D40000A94D2F7A40193016F960FAC6F9704C079
:100D5000220F331F441F551F0A94D2F76DA47EA49F
:100D60008FA498A80E2E04C09694879477946794C5
:100D70000A94D2F784017301E22AF32A042B152B7B
:100D8000E9A6FAA60BA71CA7320188249924920190
:100D900081012070307021960CAF1DAF2EAF3FAF98
:100DA0002197C601B501A40193010E9473397B010B
:100DB0008C01C601B501A40193010E947339C901D8
:100DC000DA0125968CAF9DAFAEAFBFAF2597BC01C2
:100DD000CD0121962CAD3DAD4EAD5FAD21970E946A
:100DE00041399B01AC018701FF24EE24A9A4BAA4D8
:100DF000CBA4DCA4C601AA27BB275C016D01AE28E9
:100E0000BF28C02AD12AA216B306C406D50660F5AB
:100E100025966CAD7DAD8EAD9FAD25976150704030
:100E20008040904025966CAF7DAF8EAF9FAF2597E9
:100E3000A20CB31CC41CD51CA214B304C404D50456
:100E400098F0A216B306C406D50670F4615070403F
:100E50008040904025966CAF7DAF8EAF9FAF2597B9
:100E6000A20CB31CC41CD51CA21AB30AC40AD50A0E
:100E7000C601B501A40193010E9473397B018C0165
:100E8000C601B501A40193010E947339C901DA01B9
:100E90003C014D01C401B30121962CAD3DAD4EADD9
:100EA0005FAD21970E9441399B01AC018701FF246E
:100EB000EE2489A59AA5ABA5BCA5A070B07057017A
:100EC0006801A82AB92ACA2ADB2AA216B306C406D0
:100ED000D506E0F408946108710881089108A20C15
:100EE000B31CC41CD51CA214B304C404D50470F0F4
:100EF000A216B306C406D50648F408946108710822
:100F000081089108A20CB31CC41CD51C8DA59EA5FC
:100F1000AFA5B8A96F960FAC6F9704C0880F991F43
:100F2000AA1FBB1F0A94D2F78DA79EA7AFA7B8AB85
:100F3000A21AB30AC40AD50A2596ECACFDAC0EADD4
:100F40001FAD2597D70199278827682A792A8A2AE9
:100F50009B2A82012227332729960CAF1DAF2EAF83
:100F60003FAF2997A2019101407050702D962CAF90
:100F70003DAF4EAF5FAF2D97C601B50129962CADA1
:100F80003DAD4EAD5FAD29970E9473397B018C0159
:100F9000C601B50129962CAD3DAD4EAD5FAD29978B
:100FA0000E947339C901DA0161968CAF9DAFAEAF73
:100FB000BFAF6197BC01CD012D962CAD3DAD4EADBF
:100FC0005FAD2D970E9441399B01AC018701FF2441
:100FD000EE24ADA4BEA4CFA4D8A8C601AA27BB27DF
:100FE00057016801A82AB92ACA2ADB2AA216B30621
:100FF000C406D50660F561966CAD7DAD8EAD9FAD36
:101000006197615070408040904061966CAF7DAFB9
:101010008EAF9FAF6197A20CB31CC41CD51CA21449
:10102000B304C404D50498F0A216B306C406D506CA
:1010300070F4615070408040904061966CAF7DAF1D
:101040008EAF9FAF6197A20CB31CC41CD51CA21A13
:10105000B30AC40AD50AC601B50129962CAD3DAD27
:101060004EAD5FAD29970E9473397B018C01C6019B
:10107000B50129962CAD3DAD4EAD5FAD29970E94CF
:101080007339C901DA015C016D01C601B5012D9604
:101090002CAD3DAD4EAD5FAD2D970E9441399B010A
:1010A000AC018701FF24EE248DA59EA5AFA5B8A9AC
:1010B000A070B070E82AF92A0A2B1B2BE216F3065F
:1010C00004071507C0F40894A108B108C108D108A5
:1010D000E20CF31C041D151DE214F30404051505B0
:1010E00050F0E216F3060407150728F40894A10847
:1010F000B108C108D1086196ECACFDAC0EAD1FADD6
:101100006197D7019927882796018501082B192B0C
:101110002A2B3B2B09AB1AAB2BAB3CAB62C26E1438
:101120007F048006910608F451C220E0E21620E018
:10113000F20621E0020720E0120788F43FEFE316F1
:10114000F1040105110531F028F048E050E060E0BD
:1011500070E017C040E050E060E070E012C040E096
:10116000E41640E0F40640E0040741E0140728F0EC
:1011700048E150E060E070E004C040E150E060E031
:1011800070E0D801C701042E04C0B695A7959795C5
:1011900087950A94D2F781589D4FDC012C9130E25B
:1011A000A32EB12CC12CD12CD601C501841B950BCB
:1011B000A60BB70B821B9109A109B1090097A105E4
:1011C000B10589F4E614F7040805190508F4F2C11D
:1011D0006DA47EA48FA498A862147304840495045B
:1011E00008F0E8C1F3C16E968FAF6E97082E04C069
:1011F000EE0CFF1C001F111F0A94D2F76A2D681B0A
:10120000D201C101062E04C0B695A7959795879582
:101210000A94D2F75C016D01AE28BF28C02AD12AFA
:10122000ADA2BEA2CFA2D8A6720161016E960FAC8C
:101230006E9704C0CC0CDD1CEE1CFF1C0A94D2F788
:10124000C9A2DAA2EBA2FCA264015301062E04C0DB
:10125000D694C794B794A7940A94D2F7D401C30143
:101260006E960FAC6E9704C0880F991FAA1FBB1F04
:101270000A94D2F7EDA4FEA40FA518A904C01695F0
:101280000795F794E7946A95D2F737014801682AE1
:10129000792A8A2A9B2A6D8E7E8E8F8E98A2EDA047
:1012A000FEA00FA118A53801882499249801870170
:1012B0002070307065960CAF1DAF2EAF3FAF6597B5
:1012C000C601B501A40193010E9473397B018C0111
:1012D000C601B501A40193010E947339C901DA0165
:1012E0001C012D01C201B10165962CAD3DAD4EAD85
:1012F0005FAD65970E9441399B01AC018701FF24D6
:10130000EE24AD8CBE8CCF8CD8A0C601AA27BB27FB
:1013100057016801A82AB92ACA2ADB2AA216B306ED
:10132000C406D50600F50894210831084108510883
:10133000EDA0FEA00FA118A5AE0CBF1CC01ED11EB3
:10134000AE14BF04C006D10670F0A216B306C406E0
:10135000D50648F408942108310841085108AE0C1C
:10136000BF1CC01ED11EA21AB30AC40AD50AC601E8
:10137000B501A40193010E9473397B018C01C60160
:10138000B501A40193010E947339C901DA013C013E
:101390004D01C401B30165962CAD3DAD4EAD5FADC1
:1013A00065970E9441399B01AC018701FF24EE241F
:1013B0008D8D9E8DAF8DB8A1A070B0705701680162
:1013C000A82AB92ACA2ADB2AA216B306C406D50659
:1013D00000F5089461087108810891086DA17EA14B
:1013E0008FA198A5A60EB71EC81ED91EA616B706B1
:1013F000C806D90670F0A216B306C406D50648F48E
:1014000008946108710881089108A60EB71EC81ECD
:10141000D91ED601C501821B930BA40BB50B898F76
:101420009A8FAB8FBC8FD101992788276401530114
:10143000A82AB92ACA2ADB2AA9AABAAACBAADCAA4C
:10144000860175012FEF3FEF40E050E0E222F322EA
:1014500004231523A601662777276D964CAF5DAF51
:101460006EAF7FAF6D97A9A0BAA0CBA0DCA06FEF45
:101470007FEF80E090E0A622B722C822D92289A17E
:101480009AA1ABA1BCA11D0144245524C801B701F8
:10149000A60195010E94413969966CAF7DAF8EAF70
:1014A0009FAF6997C801B701A20191010E9441391C
:1014B0003B014C016D966CAD7DAD8EAD9FAD6D97D2
:1014C000A60195010E9441397B018C016D966CAD9E
:1014D0007DAD8EAD9FAD6D97A20191010E94413906
:1014E0005B016C01A8019701260D371D481D591D90
:1014F00069966CAC7DAC8EAC9FAC6997C401AA2791
:10150000BB27280F391F4A1F5B1F2E153F054007B9
:10151000510748F4E12CF12C61E0062F112DAE0C9F
:10152000BF1CC01ED11ECA01AA27BB27BC01CD010A
:101530006A0D7B1D8C1D9D1D698C7A8C8B8C9C8CFF
:10154000661677068806990640F1661577058805C0
:10155000990509F043C0D9019927882769962CADD0
:101560003DAD4EAD5FAD699740705070820F931FD7
:10157000A41FB51F2DA53EA54FA558A96E960FAC6B
:101580006E9704C0220F331F441F551F0A94D2F7D1
:10159000281739074A075B0708F509A91AA92BA9D3
:1015A0003CA9015010402040304009AB1AAB2BAB96
:1015B0003CAB14C066247724430121E030E040E0D6
:1015C00050E029AB3AAB4BAB5CAB0BC06624772445
:1015D000430119AA1AAA1BAA1CAA03C066247724CD
:1015E0004301FE01719688E0DF011D928A95E9F7BB
:1015F000A9A8BAA8CBA8DCA8A98ABA8ACB8ADC8A0F
:101600006D8A7E8A8F8A988E29A93A894B895C894E
:10161000662D7E898F89988DC25ADF4FE2E10C9446
:10162000E039ABE5B0E0E7E1FBE00C94C439A8E0B9
:101630004E010894811C911CF4016A2E11926A9447
:10164000E9F729833A834B835C836D837E838F83A1
:101650009887CE010996FC011192AA95E9F7A9860F
:10166000BA86CB86DC86ED86FE860F87188B2984AA
:101670003A844B845C84AD84BE84CF84D88829812D
:101680003A814B815C8169962FAF69976A963FAF2B
:101690006A976B964FAF6B976C965FAF6C976C9633
:1016A0006CAC7DAC8EAC9FAC6C9769AA7AAA8BAA05
:1016B0009CAA6D817E818F8198853B014C016DAA2A
:1016C0007EAA8FAA98AEA114B104C104D10409F076
:1016D00004C3621473048404950408F000C100E09C
:1016E000201600E0300601E0400600E0500688F4D5
:1016F0001FEF211631044104510439F030F0B8E0F5
:10170000EB2EF12C012D112D18C0EE24FF248701A2
:1017100014C040E0241640E0340640E0440641E0B6
:10172000540630F0A8E1EA2EF12C012D112D05C050
:10173000F0E1EF2EF12C012D112DD201C1010E2C63
:1017400004C0B695A795979587950A94D2F78158C6
:101750009D4FDC012C9180E290E0A0E0B0E08E197A
:101760009F09A00BB10B5C016D01A21AB108C10861
:10177000D108A9AEBAAECBAEDCAEA114B104C1049F
:10178000D10409F43FC069AD062E04C0220C331CFD
:10179000441C551C0A94D2F7A4019301062E04C0E0
:1017A000220F331F441F551F0A94D2F780E290E0A6
:1017B0008A199B096C96CCACDDACEEACFFAC6C9797
:1017C00004C0F694E794D794C7948A95D2F787011A
:1017D0007601E22AF32A042B152BEDAAFEAA0FAB01
:1017E00018AF6C968CAD9DADAEADBFAD6C9704C01F
:1017F000880F991FAA1FBB1F6A95D2F789AB9AABB6
:10180000ABABBCAB320188249924B201A10160705A
:10181000707021964CAF5DAF6EAF7FAF21976DA911
:101820007EA98FA998ADA40193010E9473397B0111
:101830008C016DA97EA98FA998ADA40193010E9486
:101840007339CA01B90121962CAD3DAD4EAD5FADE6
:1018500021970E9441399B01AC018701FF24EE24AE
:10186000A9A8BAA8CBA8DCA8C601AA27BB275701FC
:101870006801A82AB92ACA2ADB2AA216B306C40616
:10188000D50690F4A20CB31CC41CD51CA214B3043E
:10189000C404D50448F0A216B306C406D50620F445
:1018A000A20CB31CC41CD51CA21AB30AC40AD50AC4
:1018B000C601B501A40193010E9473397B018C011B
:1018C000C601B501A40193010E947339CA01B9018F
:1018D00021962CAD3DAD4EAD5FAD2197BAC121141F
:1018E00031044104510471F461E070E080E090E063
:1018F00020E030E040E050E00E947339C901DA0195
:101900001C012D0100E0201600E0300601E0400639
:1019100000E0500688F41FEF211631044104510401
:1019200039F030F038E0E32EF12C012D112D18C0E4
:10193000EE24FF24870114C040E0241640E0340662
:1019400040E0440641E0540630F028E1E22EF12C5C
:10195000012D112D05C090E1E92EF12C012D112D45
:10196000D201C1010E2C04C0B695A7959795879515
:101970000A94D2F781589D4FDC012C9180E2A82E69
:10198000B12CC12CD12CD601C5018E199F09A00BF9
:10199000B10B7C018D01E21AF10801091109E9AED0
:1019A000FAAE0BAF1CAFE114F1040105110539F4D7
:1019B00064015301A218B308C408D508E2C0F9AC09
:1019C0006896FFAE68970F2C04C0220C331C441C91
:1019D000551C0A94D2F78A2D8F1964015301082EE1
:1019E00004C0D694C794B794A7940A94D2F7A401DC
:1019F000930104C0220F331F441F551FFA94D2F7DE
:101A00006C966CAC7DAC8EAC9FAC6C9704C096941D
:101A10008794779467948A95D2F784017301E22AB8
:101A2000F32A042B152BEDA6FEA60FA718AB320147
:101A300088249924B201A1016070707025964CAF82
:101A40005DAF6EAF7FAF2597C601B501A4019301CD
:101A50000E9473397B018C01C601B501A401930179
:101A60000E947339CA01B90125962CAD3DAD4EAD2A
:101A70005FAD25970E9441399B01AC018701FF248E
:101A8000EE24ADA4BEA4CFA4D8A8C601AA27BB2724
:101A90005C016D01AE28BF28C02AD12AA216B30668
:101AA000C406D50690F4A20CB31CC41CD51CA21409
:101AB000B304C404D50448F0A216B306C406D50680
:101AC00020F4A20CB31CC41CD51CA21AB30AC40A6D
:101AD000D50AC601B501A40193010E9473397B01A7
:101AE0008C01C601B501A40193010E947339CA019A
:101AF000B90125962CAD3DAD4EAD5FAD25970E9449
:101B000041399B01AC018701FF24EE248DA59EA5E0
:101B1000AFA5B8A9A070B07057016801A82AB92A6A
:101B2000CA2ADB2AA216B306C406D50690F4A20C74
:101B3000B31CC41CD51CA214B304C404D50448F0BF
:101B4000A216B306C406D50620F4A20CB31CC41C0E
:101B5000D51C6C96ECACFDAC0EAD1FAD6C976896C9
:101B60000FAC689704C0EE0CFF1C001F111F0A94F5
:101B7000D2F7E9AAFAAA0BAB1CABA21AB30AC40AA1
:101B8000D50A320188249924B201A10160707070D5
:101B900029964CAF5DAF6EAF7FAF2997C601B501F7
:101BA000A40193010E9473397B018C01C601B50128
:101BB000A40193010E947339CA01B90129962CAD81
:101BC0003DAD4EAD5FAD29970E9441399B01AC01FF
:101BD0008701FF24EE24A9A8BAA8CBA8DCA8C601D7
:101BE000AA27BB2757016801A82AB92ACA2ADB2AD3
:101BF000A216B306C406D50690F4A20CB31CC41CEE
:101C0000D51CA214B304C404D50448F0A216B3062C
:101C1000C406D50620F4A20CB31CC41CD51CA21A01
:101C2000B30AC40AD50AC601B501A40193010E94F2
:101C300073397B018C01C601B501A40193010E9497
:101C40007339CA01B90129962CAD3DAD4EAD5FADDA
:101C500029970E9441399B01AC018701FF24EE24A2
:101C600089A99AA9ABA9BCA9A070B070E82AF92AE1
:101C70000A2B1B2BE216F3060407150790F4E20C5F
:101C8000F31C041D151DE214F3040405150548F0AA
:101C9000E216F3060407150720F4E20CF31C041DFA
:101CA000151DE21AF30A040B150BD801C70109AC84
:101CB00004C0B695A795979587950A94D2F7898B16
:101CC0009A8BAB8BBC8B1D8A1E8A1F8A188E282F7D
:101CD0003A894B895C896D890CC36A147B048C0436
:101CE0009D0408F409C300E0A01600E0B00601E07E
:101CF000C00600E0D00688F41FEFA116B104C104AD
:101D0000D10439F030F088E0E82EF12C012D112DAE
:101D100018C0EE24FF24870114C040E0A41640E060
:101D2000B40640E0C40641E0D40630F008E1E02EFD
:101D3000F12C012D112D05C010E1E12EF12C012D0A
:101D4000112DD601C5010E2C04C0B695A795979507
:101D500087950A94D2F781589D4FDC012C9180E23F
:101D600090E0A0E0B0E08E199F09A00BB10B821BA0
:101D70009109A109B1090097A105B10509F04FC06A
:101D8000A614B704C804D90458F06C96ECACFDACAA
:101D90000EAD1FAD6C97E214F3040405150568F150
:101DA0006C96ECACFDAC0EAD1FAD6C97E218F30871
:101DB00004091509A40193012A193B094C095D097D
:101DC000AA24BB2465016C966CAD7DAD8EAD9FAD34
:101DD0006C976E157F058007910728F4B1E0AB2E54
:101DE000B12CC12CD12CDA01C9018A199B09AC098B
:101DF000BD098DAB9EABAFABB8AFE98AFA8A0B8B4E
:101E00001C8B6DA87EA88FA898AC6D8A7E8A8F8A5D
:101E1000988E2E2D3A894B895C896DA96AC2679686
:101E20008FAF6797A6019501082E04C0220F331FBC
:101E3000441F551F0A94D2F7A0E2AA2EA81A66964C
:101E4000AFAE6697D201C10104C0B695A79597952C
:101E50008795AA94D2F76C017D01C22AD32AE42A7D
:101E6000F52AC9A6DAA6EBA6FCA68201710167963F
:101E70000FAC679704C0EE0CFF1C001F111F0A94E3
:101E8000D2F7EDA2FEA20FA318A764015301669634
:101E90000FAC669704C0D694C794B794A7940A94DD
:101EA000D2F7A401930167960FAC679704C0220F85
:101EB000331F441F551F0A94D2F76C968CAD9DAD0D
:101EC000AEADBFAD6C9766960FAC669704C0B69585
:101ED000A795979587950A94D2F73C014D01622A00
:101EE000732A842A952A69A27AA28BA29CA26C9654
:101EF000ECACFDAC0EAD1FAD6C9767960FAC679761
:101F000004C0EE0CFF1C001F111F0A94D2F7ED8EC7
:101F1000FE8E0F8F18A349A55AA56BA57CA53B0182
:101F200088249924607070702D964CAF5DAF6EAFB1
:101F30007FAF2D97C601B501A40193010E947339AB
:101F40007B018C01C601B501A40193010E94733984
:101F5000C901DA011C012D01C201B1012D962CAD80
:101F60003DAD4EAD5FAD2D970E9441399B01AC0157
:101F70008701FF24EE24A9A0BAA0CBA0DCA0C60153
:101F8000AA27BB2757016801A82AB92ACA2ADB2A2F
:101F9000A216B306C406D50600F508942108310838
:101FA00041085108E9A4FAA40BA51CA5AE0CBF1C5E
:101FB000C01ED11EAE14BF04C006D10670F0A2161A
:101FC000B306C406D50648F4089421083108410830
:101FD0005108AE0CBF1CC01ED11EA21AB30AC40AFF
:101FE000D50AC601B501A40193010E9473397B0192
:101FF0008C01C601B501A40193010E947339C90186
:10200000DA013C014D01C401B3012D962CAD3DAD6B
:102010004EAD5FAD2D970E9441399B01AC01870108
:10202000FF24EE2489A19AA1ABA1BCA1A070B0703D
:1020300057016801A82AB92ACA2ADB2AA216B306C0
:10204000C406D50600F50894610871088108910856
:1020500069A57AA58BA59CA5A60EB71EC81ED91E7C
:10206000A616B706C806D90670F0A216B306C406AF
:10207000D50648F408946108710881089108A60EF5
:10208000B71EC81ED91ED601C501821B930BA40B17
:10209000B50B898F9A8FAB8FBC8FD1019927882779
:1020A00084017301E82AF92A0A2B1B2B4FEFA42E77
:1020B0004FEFB42EC12CD12CAE20BF20C022D12294
:1020C0007801002711276DA07EA08FA098A44FEF64
:1020D0005FEF60E070E064227522862297228DA176
:1020E0009EA1AFA1B8A5BD018827992765966CAFC1
:1020F0007DAF8EAF9FAF6597C601B501A401930177
:102100000E94413961966CAF7DAF8EAF9FAF6197F2
:10211000C601B50165962CAD3DAD4EAD5FAD659781
:102120000E9441391B012C01C801B701A401930190
:102130000E9441395B016C01C801B70165962CAD65
:102140003DAD4EAD5FAD65970E9441397B018C017D
:10215000A6019501220D331D441D551D61966CACE1
:102160007DAC8EAC9FAC6197C401AA27BB27280F1A
:10217000391F4A1F5B1F2A153B054C055D0548F4B6
:10218000812C912CE1E0AE2EB12CE80CF91C0A1D3B
:102190001B1DCA01AA27BB2757016801A80EB91E3B
:1021A000CA1EDB1EA9013327222761968CAD9DAD87
:1021B000AEADBFAD6197A070B070280F391F4A1F38
:1021C0005B1FE98CFA8C0B8D1C8DEA14FB040C054B
:1021D0001D0570F0AE14BF04C006D10669F56D8D03
:1021E0007E8D8F8D98A1621773078407950720F560
:1021F000DA01C9016DA07EA08FA098A48619970965
:10220000A809B909E9A4FAA40BA51CA5AE18BF0832
:10221000C00AD10AEE24FF248701281739074A078C
:102220005B0728F421E0E22EF12C012D112DAE18D0
:10223000BF08C00AD10A02C0DA01C9016D8C7E8CC8
:102240008F8C98A0681A790A8A0A9B0A498D5A8D40
:102250006B8D7C8D4A195B096C097D095A016B01F4
:102260002224332421016D8D7E8D8F8D98A16615DA
:1022700077058805990528F481E0282E312C412C1A
:10228000512C86017501E218F30804091509A8010B
:10229000970166960FAC669704C0220F331F441F48
:1022A000551F0A94D2F7D401C30167960FAC679704
:1022B00004C0B695A795979587950A94D2F7282BD1
:1022C000392B4A2B5B2B298B3A8B4B8B5C8B67967C
:1022D0000FAC679704C016950795F794E7940A9496
:1022E000D2F7ED8AFE8A0F8B188F3A894B895C8969
:1022F0006E2D7E898F89988DC55ADF4FE2E10C944F
:10230000E039FC010590615070400110D8F78095CC
:1023100090958E0F9F1F0895FC01615070400190B1
:102320000110D8F7809590958E0F9F1F0895FC019E
:102330001382128288EE93E0A0E0B0E0848395835C
:10234000A683B7838EE993E0918380830895FC018F
:102350008089803419F421E030E002C020E030E0D0
:10236000C9010895FC0164874587668747870895FA
:1023700080E090E0089580E090E0089580E090E0B3
:1023800008950895EF92FF921F93CF93DF93162F36
:102390007A0186E060E00E94F0348AEF95E060E028
:1023A0000E94F32A8AEF95E060E00E94F32A8AEF08
:1023B00095E069E00E94F32A8AEF95E0612F0E9480
:1023C000F32AC0E0D0E0F701EC0FFD1F10818AEF87
:1023D00095E06AE00E94F32A8AEF95E06C2F0E9454
:1023E000F32A8AEF95E06BE00E94F32A8AEF95E0EA
:1023F000612F0E94F32A2196C633D10521F78AEF77
:1024000095E068E00E94F32A8AEF95E060EA0E9476
:10241000F32A8AEF95E060EA0E94F32A85FDF9CF5E
:102420008AEF95E060E00E94F32A8AEF95E06CE085
:102430000E94F32A86E061E00E94F034DF91CF91A0
:102440001F91FF90EF9008951F93CF93DF93EC01BE
:10245000162F86E060E00E94F0348AEF95E060E09D
:102460000E94F32A112319F0113059F404C08AEFA5
:1024700095E0688904C068896C618AEF95E00E94E4
:10248000F32A86E061E00E94F034DF91CF911F9142
:102490000895EF92FF920F931F938EE1489F700172
:1024A0001124E60EF11C86E060E00E94F0340AEF91
:1024B00015E0C80165E00E94F32AC8016F2D0E9453
:1024C000F32AC80166E00E94F32AC8016E2D0E941B
:1024D000F32A1F910F91FF90EF900895EF92FF92D2
:1024E0000F931F937C010AEF15E0C80167E00E947B
:1024F000F32AC8016FEF0E94F32A86E061E00E9490
:10250000F034F70187858F5F87871F910F91FF90C8
:10251000EF900895EF92FF920F931F93FC01E784D1
:102520008EE1E89E700111248685E80EF11C86E09C
:1025300060E00E94F0340AEF15E0C80164E00E94F8
:10254000F32AC80163E00E94F32AC80165E00E94F3
:10255000F32AC8016F2D0E94F32AC80166E00E9489
:10256000F32AC8016E2D0E94F32A1F910F91FF904C
:10257000EF9008951F93CF93DF93EC01162F6C37E4
:1025800031F40E946E12CE010E948A120AC08AEFB4
:1025900095E067E00E94F32A8AEF95E0612F0E94A0
:1025A000F32A81E090E0DF91CF911F9108950F937E
:1025B0001F9386E060E00E94F0340AEF15E0C80146
:1025C00064E00E94F32AC80164E00E94F32A86E0D6
:1025D00061E00E94F0341F910F910895CF93DF9333
:1025E000EC018CE096E062E070E00E94D931188A3C
:1025F00086E0898B86E060E00E94F034DF91CF9125
:1026000008951F93CF93DF93EC0186E061E00E9471
:10261000B13482E060E00E94B13482E061E00E9467
:10262000F034CE010E94EE1286E060E00E94F034A9
:102630008AEF95E06CEE0E94F32A8AEF95E06FEF47
:102640000E94F32A182F8AEF95E060E00E94F32A97
:10265000688962608AEF95E00E94F32A62E370E085
:1026600080E090E00E94F8338AEF95E06CE60E94EB
:10267000F32A1F7E8AEF95E0612F0E94F32A1092C1
:10268000C5041092C40417C06091C4047091C504BD
:10269000605F8AEF95E00E94F32A8AEF95E060E0A0
:1026A0000E94F32A8091C4049091C50401969093EE
:1026B000C5048093C4048091C4049091C5040C9710
:1026C0001CF3CE0161E00E942412DF91CF911F9193
:1026D00008951F920F920FB60F9211242F933F93DC
:1026E0004F938F939F93EF93FF934091C600209158
:1026F000FB053091FC052F5F3F4F8091FF059091C6
:102700000006282339238091FD059091FE052817A6
:10271000390779F08091FB059091FC05E091010665
:10272000F0910206E80FF91F40833093FC052093D7
:10273000FB05FF91EF919F918F914F913F912F91C9
:102740000F900FBE0F901F9018951F920F920FB60B
:102750000F9211242F933F938F939F93EF93FF93A7
:10276000209105063091060680910306909104069B
:1027700028173907E9F08091050690910606E09147
:102780000906F0910A06E80FF91F80818093C600C0
:1027900080910506909106060196209107063091DA
:1027A000080682239323909306068093050610C0A3
:1027B000209103063091040680910506909106064B
:1027C0002817390729F48091C1008F7D8093C100BB
:1027D000FF91EF919F918F913F912F910F900FBE9D
:1027E0000F901F9018958F92AF92CF92EF92FF9219
:1027F0000F931F9386EC94E060E045EC50E024ECEE
:1028000030E000EC10E0F1ECEF2EF12CCC24C3947E
:10281000E8E9AE2E70E2872E0E94492B83EE94E009
:102820000E9497111092F6041092F7041092F80487
:102830001092F9041092FA041092FB041092FC0416
:102840001092FD041092FF041092FE041092F50401
:102850001F910F91FF90EF90CF90AF908F900895C0
:102860002F923F924F925F926F927F928F929F92A0
:10287000AF92BF92CF92DF92EF92FF920F931F938E
:10288000CF93DF935B016C0139014A0180911805F8
:10289000882309F03EC1C601B50120E030E040E0E8
:1028A00050E00E94443687FD02C0332406C0D7FAA8
:1028B000D094D7F8D09433243394C401B30120E0EA
:1028C00030E040E050E00E94443687FD02C0222400
:1028D00006C097FA909497F8909422242394C60106
:1028E000B5010E94B836462E5524B201882777FDDF
:1028F0008095982F0E94E6369B01AC01C601B50178
:102900000E947D3520E030E040E752E40E94153817
:102910007B018C010E94B836C62FD0E0BE0188270B
:1029200077FD8095982F0E94E6369B01AC01C80187
:10293000B7010E947D3520E030E040E752E40E947C
:1029400015387B018C013320B1F08DB79EB70C9701
:102950000FB6F8949EBF0FBE8DBFEDB7FEB7319690
:1029600083EE94E0ADB7BEB712969C938E93119709
:1029700080E091E032C0C601B50120E030E040E0E7
:1029800050E00E94443623EE34E08823A9F400D0BE
:1029900000D0ADB7BEB712963C932E9311978FE03F
:1029A00091E014969C938E9313970E94282B0F907E
:1029B0000F900F900F9027C0EDB7FEB73C970FB662
:1029C000F894FEBF0FBEEDBF3196ADB7BEB71296FD
:1029D0003C932E93119789E191E0938382835582F2
:1029E0004482D783C683C701D80180879187A28795
:1029F000B3870E94282BEDB7FEB73C960FB6F8942C
:102A0000FEBF0FBEEDBFC401B3010E94B836C62F92
:102A1000D0E0BE01882777FD8095982F0E94E6368A
:102A20009B01AC01C401B3010E947D3520E030E080
:102A300040E752E40E9415387B018C010E94B836B1
:102A4000C62EDD24B601882777FD8095982F0E9439
:102A5000E6369B01AC01C801B7010E947D3520E03C
:102A600030E040E752E40E9415387B018C012220BF
:102A7000B1F08DB79EB70C970FB6F8949EBF0FBEFE
:102A80008DBFEDB7FEB7319683EE94E0ADB7BEB71C
:102A900012969C938E93119788E291E028C0C4010E
:102AA000B30120E030E040E050E00E94443623EEE5
:102AB00034E0882359F400D000D0ADB7BEB71296E9
:102AC0003C932E9311978FE091E0CDC0EDB7FEB708
:102AD0003C970FB6F894FEBF0FBEEDBF3196ADB771
:102AE000BEB712963C932E93119787E391E09383A0
:102AF0008283D583C483D782C682C701D8018087E9
:102B00009187A287B3870E94282BEDB7FEB73C962A
:102B1000D1C0C601B50120E030E040E050E00E94A5
:102B200044368823FCF48DB79EB708970FB6F89407
:102B30009EBF0FBE8DBFEDB7FEB7319683EE94E01A
:102B4000ADB7BEB712969C938E93119786E491E031
:102B500093838283D601C501B05884839583A6836D
:102B6000B78338C0C601B50120E030E040E050E056
:102B70000E94443623EE34E08823A9F400D000D02C
:102B8000ADB7BEB712963C932E93119780E591E0B6
:102B900014969C938E9313970E94282B0F900F905E
:102BA0000F900F9021C0EDB7FEB738970FB6F8948D
:102BB000FEBF0FBEEDBF3196ADB7BEB712963C93C8
:102BC0002E93119785E591E093838283A482B58249
:102BD000C682D7820E94282BEDB7FEB738960FB673
:102BE000F894FEBF0FBEEDBFC401B30120E030E09A
:102BF00040E050E00E9444368823FCF48DB79EB735
:102C000008970FB6F8949EBF0FBE8DBFEDB7FEB705
:102C1000319683EE94E0ADB7BEB712969C938E9337
:102C200011978FE591E093838283D401C301B0585B
:102C300084839583A683B78338C0C401B30120E0A1
:102C400030E040E050E00E94443623EE34E0882338
:102C5000A9F400D000D0ADB7BEB712963C932E9326
:102C6000119780E591E014969C938E9313970E94A0
:102C7000282B0F900F900F900F9021C0EDB7FEB74B
:102C800038970FB6F894FEBF0FBEEDBF3196ADB7C3
:102C9000BEB712963C932E93119789E691E09383E9
:102CA000828364827582868297820E94282BEDB788
:102CB000FEB738960FB6F894FEBF0FBEEDBFDF919A
:102CC000CF911F910F91FF90EF90DF90CF90BF9029
:102CD000AF909F908F907F906F905F904F903F90BC
:102CE0002F9008952F923F924F925F926F927F9212
:102CF0008F929F92AF92BF92CF92DF92EF92FF920C
:102D00000F931F93DF93CF93CDB7DEB764970FB6C2
:102D1000F894DEBF0FBECDBF29833A834B835C831B
:102D20006D837E838F839887A986BA86CB86DC865F
:102D3000ED86FE860F87188BE980FA800B811C8157
:102D4000A984BA84CB84DC84C601B501A8019701AB
:102D50000E947D352BED3FE049E450E40E94153898
:102D600020E030E044E353E40E944B3620E030E0C2
:102D700040E05FE30E9415380E9498381B012C0147
:102D8000C801B7012BED3FE049E450E40E9415383B
:102D900020E030E044E353E40E944B360E94483682
:102DA000698B7A8B8B8B9C8BC601B5012BED3FE039
:102DB00049E450E40E94153820E030E044E353E455
:102DC0000E944B360E9448363B014C016D857E8542
:102DD0008F8598892D813E814F8158850E947D3550
:102DE0002BED3FE049E450E40E94153820E030E04C
:102DF00044E353E40E944B3620E030E040E05FE3E0
:102E00000E9415380E9498387B018C01C201B101E3
:102E1000A20191010E9415385B016C0169897A89D0
:102E20008B899C89A40193010E941538A801970100
:102E30000E941538A80197010E9415389B01AC012A
:102E4000C601B5010E947E357B018C010E94A2382B
:102E50005B016C0160E070E080E89FE3A8019701EE
:102E60000E947D350E94A2389B01AC01C601B501CC
:102E70000E94F1359B01AC010E947E3520E038E1D3
:102E800047EC55E40E94153864960FB6F894DEBFFF
:102E90000FBECDBFCF91DF911F910F91FF90EF90AB
:102EA000DF90CF90BF90AF909F908F907F906F906A
:102EB0005F904F903F902F9008951F93282F362FAB
:102EC000142F83EE94E0622F432F0E944912153095
:102ED00009F1163060F41230B9F0133018F41130E3
:102EE00089F40EC0133091F0143061F411C0173022
:102EF000A9F0173088F0183099F0193019F412C081
:102F000027EC11C020E00FC028EC0DC029EC0BC04D
:102F10002AEC09C02BEC07C02CEC05C02DEC03C03B
:102F20002EEC01C02FEC00D000D000D0EDB7FEB7E2
:102F3000319683EE94E0ADB7BEB712969C938E9314
:102F4000119783E791E093838283822F992787FDEE
:102F50009095958384830E94282B8DB79EB7069603
:102F60000FB6F8949EBF0FBE8DBF1F9108952F928C
:102F70003F924F925F926F927F928F929F92AF9209
:102F8000BF92CF92DF92EF92FF920F931F93DF9346
:102F9000CF93CDB7DEB76C970FB6F894DEBF0FBEF8
:102FA000CDBF8B8F6C8F80910505682F772767FDCC
:102FB00070959B0177FF04C022273327261B370B10
:102FC0002A35310589F48AE590E00E946039882726
:102FD00077FD8095982F0E94E63621EE3AEF43EB7D
:102FE00052E40E94153808C0682F772767FD709556
:102FF000872F972F0E94E63625E33AEF4EE85CEBE9
:103000000E941538962EE72E8C0180910605682FB8
:10301000772767FD70959B0177FF04C02227332730
:10302000261B370B2A35310589F48AE590E00E948A
:103030006039882777FD8095982F0E94E63621EE2B
:103040003AEF43EB52E40E94153808C0682F772707
:1030500067FD7095872F972F0E94E63625E33AEF9C
:103060004EE85CE30E9415385B016C01292D3E2D72
:10307000B901C8010E94EF3820E030E044E352E497
:103080000E9415380E9478380E94B3367B018C016B
:10309000B501C6010E94EF381B012C015E010894A6
:1030A000A11CB11CBA8EA98E1EEBC12E1FEFD12E12
:1030B0003701882477FC8094982CB601882777FD07
:1030C0008095982F0E94E6369B01AC01C201B101A8
:1030D0000E9415387B018C01C401B3010E94E636C1
:1030E0009B01AC01C801B7010E947E3520E030E0B1
:1030F00044E352E40E947E3520E030E040E85FE3A4
:103100000E947D350E94B336E98DFA8D61937193EB
:10311000FA8FE98F4CE050E0C40ED51E5EE4C51670
:10312000D10459F6EB8CBEEE8B2EBFEF9B2EA9E19E
:10313000CA2ED12CCC0EDD1EF50120813181C901B2
:1031400001978935910568F56EEE7FEF0E94603931
:103150008B010B5F1F4F2B553040089DC001099D0F
:10316000900D189D900D1124A901481B590BCA01FF
:1031700062E070E00E946039882777FD8095982F83
:103180000E94E6360E9478380E94B336AB01672B66
:1031900011F441E050E06C8D600F61508E2D0E9463
:1031A0005D1782E090E0A80EB91EE394AC14BD0454
:1031B00019F66C960FB6F894DEBF0FBECDBFCF9157
:1031C000DF911F910F91FF90EF90DF90CF90BF9014
:1031D000AF909F908F907F906F905F904F903F90B7
:1031E0002F90089582E090E0909301058093000570
:1031F00083EE94E00E94D712089510920105109278
:10320000000583EE94E00E94D712089581E090E0DB
:10321000909301058093000583EE94E00E94D712FD
:103220000895AF92BF92CF92DF92EF92FF920F93E9
:103230001F9303EE14E0C8010E94D712C80169E091
:1032400040E00E94B211C8010E948A1200D000D052
:10325000ADB7BEB712961C930E93119785E594E017
:1032600014969C938E9313970E94172B0F900F9098
:103270000F900F90C8010E946E1280916205882302
:1032800009F4BEC0909107055091080560910905A9
:10329000E0910A05B0910B0510910C05F0900D0519
:1032A000A0910E0580913A0540913B0570913C0537
:1032B000F0913D0500913E05E0903F05D09040051E
:1032C000C0904105292F281B31E0921708F030E00B
:1032D000852F841B41E0581708F040E0982F931B7E
:1032E000392F91E0831708F090E0492B862F871B38
:1032F00051E0681708F050E0982F941B492F91E097
:10330000841708F090E0592B8E2F8F1B61E0E8178F
:1033100008F060E0E82FE51B5E2F91E08E1708F0C3
:1033200090E0692B8B2F801B71E0B81708F070E0DC
:10333000F82FF61B6F2F91E08F1708F090E0792B94
:10334000912F9E1981E0191708F080E0B92FB71B63
:103350007B2FE1E09B1708F0E0E08E2B9F2D9D195D
:10336000F1E0F91608F0F0E0E92FE81B8E2FE1E01C
:10337000981708F0E0E0FE2BAC199A2F9F1BF0E4A1
:10338000AF2EE2E4BE2E0FE0C02EDD24EE24FF249B
:1033900000E010E00E949C04F22EE32ED42EC52EF5
:1033A00003EE14E0C80160E041E00E94B211C801E0
:1033B0000E948A128DB79EB708970FB6F8949EBFE9
:1033C0000FBE8DBFEDB7FEB73196ADB7BEB7129643
:1033D0001C930E93119786E791E093838283F48286
:1033E000E582D682C7820E94282BEDB7FEB73896B9
:1033F0000FB6F894FEBF0FBEEDBFC8010E946E125B
:1034000080916F05882319F442E050E02FC003EE4D
:1034100014E0C80160E042E00E94B211C8010E94BD
:103420008A1200D000D000D0EDB7FEB73196ADB70C
:10343000BEB712961C930E9311978DE891E093837B
:1034400082838091290590912A05958384830E9427
:10345000282BEDB7FEB736960FB6F894FEBF0FBE19
:10346000EDBFC8010E946E1243E050E07A0108945B
:10347000E11CF11C03EE14E0C80160E00E94B211EF
:10348000C8010E948A1200D000D000D0EDB7FEB76C
:103490003196ADB7BEB712961C930E93119786EA7C
:1034A00091E09383828380912B0590912C059583E5
:1034B00084830E94282BEDB7FEB736960FB6F8949A
:1034C000FEBF0FBEEDBFC8010E946E1267010894D7
:1034D000C11CD11CC80160E04E2D0E94B211C80170
:1034E0000E948A128DB79EB708970FB6F8949EBFB8
:1034F0000FBE8DBFEDB7FEB73196ADB7BEB7129612
:103500001C930E93119788EB91E0938382838091B3
:103510002D0590912E05A0912F05B0913005848343
:103520009583A683B7830E94282BEDB7FEB7389604
:103530000FB6F894FEBF0FBEEDBFC8010E946E1219
:1035400076010894E11CF11CC80160E04C2D0E943A
:10355000B211C8010E948A1200D000D000D0EDB78D
:10356000FEB73196ADB7BEB712961C930E93119766
:103570008FEC91E093838283809181038483158211
:103580000E94282BEDB7FEB736960FB6F894FEBF13
:103590000FBEEDBFC8010E946E12C80160E04E2D43
:1035A0000E94B211C8010E948A128DB79EB7089777
:1035B0000FB6F8949EBF0FBE8DBFEDB7FEB7319624
:1035C000ADB7BEB712961C930E9311978FED91E095
:1035D000938382838091820390918303A0918403DB
:1035E000B091850384839583A683B7830E94282B9B
:1035F000EDB7FEB738960FB6F894FEBF0FBEEDBF1D
:10360000C8010E946E120894E11CF11CC80160E020
:103610004E2D0E94B211C8010E948A128DB79EB72A
:1036200008970FB6F8949EBF0FBE8DBFEDB7FEB7DB
:103630003196ADB7BEB712961C930E93119783EFD8
:1036400091E0938382838091860390918703A09178
:103650008803B091890384839583A683B7830E94EE
:10366000282BEDB7FEB738960FB6F894FEBF0FBE05
:10367000EDBFC8010E946E126CE271E080E090E044
:103680000E94F8331F910F91FF90EF90DF90CF9041
:10369000BF90AF9008950F931F9303EE14E0C801FD
:1036A0000E94D712C80162E046E00E94B211C80130
:1036B0000E948A1200D000D0EDB7FEB712830183BA
:1036C00083E894E0948383830E94172B0F900F90DC
:1036D0000F900F90C8010E946E1268EE73E080E0B8
:1036E00090E00E94F8331F910F910895CF93DF93DC
:1036F000C3EED4E0CE0165E043E00E94B211CE01FA
:103700000E948A12CE010E94A711019749F400D0AD
:1037100000D0EDB7FEB7D283C18382E794E008C042
:1037200000D000D0EDB7FEB7D283C18380E694E02D
:10373000948383830E94172B0F900F900F900F900C
:1037400083EE94E00E946E12DF91CF910895BC0148
:103750008CE096E00E94D93108958CE090E00E94C0
:10376000A71B809349058DE090E00E94A71B8093E2
:103770004A058EE090E00E94A71B80934B058FE0E6
:1037800090E00E94A71B80934C0580E190E00E948E
:10379000A71B80934D0581E190E00E94A71B8093B9
:1037A0004E0582E190E00E94A71B80934F0583E1C4
:1037B00090E00E94A71B8093500584E190E00E9456
:1037C000A71B8093510585E190E00E94A71B809381
:1037D000520586E190E00E94A71B8093530587E184
:1037E00090E00E94A71B8093540588E190E00E941E
:1037F000A71B80935D0589E190E00E94A71B809341
:103800005E058AE190E00E94A71B80935F058BE133
:1038100090E00E94A71B809360058CE190E00E94DD
:10382000A71B809361058DE190E00E94A71B809308
:1038300062058EE190E00E94A71B809363058FE1F3
:1038400090E00E94A71B8093640580E290E00E94B4
:10385000A71B8093650581E290E00E94A71B8093DF
:103860006A0582E290E00E94A71B80936B0583E2C9
:1038700090E00E94A71B80936C0584E290E00E9478
:10388000A71B8093460585E290E00E94A71B8093CA
:10389000470586E290E00E94A71B8093480587E2D7
:1038A00090E00E94A71B80936D0588E290E00E9443
:1038B000A71B80936E0589E290E00E94A71B80936E
:1038C0006F058AE290E00E94A71B809373058BE24C
:1038D00090E00E94A71B809374058CE290E00E9408
:1038E000A71B8093750581E590E00E94A71B80933C
:1038F000700582E590E00E94A71B8093710583E527
:1039000090E00E94A71B8093720587E390E00E94DD
:10391000A71B8093180588E390E00E94A71B809363
:103920001D0589E390E00E94A71B80931E058AE392
:1039300090E00E94A71B80931F058BE390E00E94FC
:10394000A71B8093200582E490E00E94A71B809330
:10395000210583E490E00E94A71B8093220584E464
:1039600090E00E94A71B8093230585E490E00E94CD
:10397000A71B8093240586E490E00E94A71B8093F8
:10398000250587E490E00E94A71B8093260588E424
:1039900090E00E94A71B8093270589E490E00E9495
:1039A000A71B8093280580E590E00E94A71B8093C9
:1039B0008A0308958F929F92AF92BF92CF92DF9227
:1039C000FF920F931F93CF93DF93F62E4901C82EDA
:1039D000DD248601000F111F5801AC0CBD1CE50150
:1039E000CC0FDD1FCC0FDD1FC251DA4F18828B8147
:1039F0009C818430910509F48EC0853091055CF47A
:103A00008230910509F443C0833091050CF0BFC0AA
:103A10009923C4F44FC28730910509F443C188301B
:103A2000910544F48530910509F4DEC0069709F04C
:103A300041C207C18830910509F47AC1099709F09C
:103A400039C2E7C18EEF681709F034C282E090E016
:103A50009C838B8380E790E0C89ED001C99EB00D07
:103A6000D89EB00D1124A258BA4F13961C921397EA
:103A700088E390E0C89EF001C99EF00DD89EF00D3D
:103A80001124EE0FFF1FE058FA4F6083A4C1E5E652
:103A9000E61788F489818F5F8983F501EE0FFF1F98
:103AA000EE0FFF1FE051FA4F80818F5F80831882F5
:103AB00081E090E02DC080E790E0C89EF001C99EB3
:103AC000F00DD89EF00D1124E258FA4F63831D8249
:103AD00080818627282F2295207F282730E0522FAB
:103AE0004427C90163E0880F991F6A95E1F74827C9
:103AF0005927818190E04827592784E035952795FB
:103B00008A95E1F7422753275183408384E090E070
:103B10009C838B83CFC18CE190E0C89EF001C99E4D
:103B2000F00DD89EF00D1124EE0FFF1FEE0FFF1FBA
:103B3000EE57FA4F608380E790E0C89EF001C99E7F
:103B4000F00DD89EF00D1124E258FA4F808186279F
:103B5000282F2295207F282730E0522F4427C901A3
:103B6000B3E0880F991FBA95E1F74827592781815B
:103B700090E048275927A4E035952795AA95E1F7C5
:103B8000422753275183408383E090E0C1CF80E7F1
:103B900090E0C89EF001C99EF00DD89EF00D112452
:103BA000E258FA4F658380818627282F2295207F4F
:103BB000282730E0522F4427C90163E0880F991F5E
:103BC0006A95E1F748275927818190E048275927CE
:103BD00004E0359527950A95E1F74227532751834D
:103BE000408385E090E094CF80E790E0C89EF001AC
:103BF000C99EF00DD89EF00D1124E258FA4F66834D
:103C000080818627282F2295207F282730E0522F79
:103C10004427C901B3E0880F991FBA95E1F74827F7
:103C20005927818190E048275927A4E035952795A9
:103C3000AA95E1F7422753275183408386E090E01D
:103C400067CF80E790E0C89EF001C99EF00DD89E36
:103C5000F00D1124E258FA4F678380818627282FC0
:103C60002295207F282730E0522F4427C90163E0A6
:103C7000880F991F6A95E1F748275927818190E0BD
:103C80004827592794E0359527959A95E1F74227DB
:103C90005327518340838381882309F446C087E0FA
:103CA00090E036CF6D81F80183E0EE0FFF1F8A951B
:103CB000E1F7E01BF10B319603E0EE0FFF1F0A95D1
:103CC000E1F7E60FF11DE258FA4FF0826F5F6D8366
:103CD00080E790E0C89EF001C99EF00DD89EF00DDF
:103CE0001124E258FA4F80818F25282F2295207FBA
:103CF000282730E0522F4427C901B3E0880F991FCD
:103D0000BA95E1F748275927818190E0482759273C
:103D1000A4E035952795AA95E1F7422753275183CB
:103D200040838381681709F0C5C088E090E0F0CE39
:103D300080E790E0C89ED001C99EB00DD89EB00D1E
:103D40001124A258BA4F9C911796EC911797F0E066
:103D5000E455FC4F80818927482F4295407F4827B2
:103D600050E0342F2227CA0173E0880F991F7A95FB
:103D7000E1F72827392711968C91119790E0282791
:103D8000392764E0559547956A95E1F7242735274B
:103D900011963C932E938F2D90E0307082179307ED
:103DA000F9F0F501EE0FFF1FEE0FFF1FE051FA4F84
:103DB00080818F5F8083188281E090E09C838B8379
:103DC000FEEFFF1609F076C082E090E09C838B83C3
:103DD00013961C9213978FEF9FEF8D939C936AC05D
:103DE00089E090E09C838B83F80183E0EE0FFF1F56
:103DF0008A95E1F7E01BF10B319603E0EE0FFF1F10
:103E00000A95E1F78D81E80FF11DE258FA4FF08233
:103E100051C0262F30E080E790E0C89EB001C99ED7
:103E2000700DD89E700D112462587A4FFB0181816C
:103E300090E028173907E9F0F501EE0FFF1FEE0FAC
:103E4000FF1FE051FA4F80818F5F8083188281E0ED
:103E500090E09C838B83FEEFFF1661F582E090E09B
:103E60009C838B83EB011B828FEF9FEF9983888369
:103E700021C081E0888381E090E09C838B83F801FE
:103E8000B3E0EE0FFF1FBA95E1F7E01BF10B31969F
:103E9000A3E0EE0FFF1FAA95E1F78D81E80FF11D5A
:103EA000E158FA4FF082DA01FB0180E701900D92B0
:103EB0008150E1F7D601AA0FBB1FAC0DBD1DAA0FA3
:103EC000BB1FAA0FBB1FA251BA4F8C91813069F55D
:103ED0008CE190E0C89EF001C99EF00DD89EF00DD7
:103EE0001124EE0FFF1FEE0FFF1FEE57FA4F8081D8
:103EF00016968C93169718968D919C911997892BED
:103F000021F41B961C921E921A97F601EE0FFF1FCA
:103F1000EC0DFD1DEE0FFF1FEE0FFF1FE251FA4FDC
:103F200080859185019691878087F601EE0FFF1FAE
:103F3000EC0DFD1DEE0FFF1FEE0FFF1FDF01A25165
:103F4000BA4F16968C9116978F5FE4018E83189660
:103F50008D919C91199799878887E051FA4F8081BC
:103F60008A871B8610828C91DF91CF911F910F91D0
:103F7000FF90DF90CF90BF90AF909F908F9008956B
:103F80004F925F927F928F929F92AF92BF92CF9209
:103F9000DF92EF92FF920F931F93DF93CF93CDB7F2
:103FA000DEB7C854D0400FB6F894DEBF0FBECDBF09
:103FB00003EE14E0C8010E94D712C80166E049E090
:103FC0000E94B211C8010E948A1200D000D0EDB741
:103FD000FEB7128301838AEF94E0948383830E9467
:103FE000172B0F900F900F900F90C8010E946E1228
:103FF00000D000D006EC14E0EDB7FEB712830183C9
:104000008AEE94E0948383830E94172B2FED422E37
:1040100024E0522ECC24DD24FF24AA24BB240F90BC
:104020000F900F900F90702EE12E8E01075F1F4FA3
:104030004E010894811C911C86EC94E00E94CB2BCD
:10404000982F8D3031F08D30E4F180538230C8F5F7
:1040500031C0F8E0FF16A1F59981892F8053823095
:1040600078F5913311F490E801C090E08A818133B2
:1040700009F4905C8B81813309F4905E8C818133EB
:1040800009F4905F8D81813309F4985F8E818133CB
:1040900009F49C5F8F81813309F49E5F88858133A9
:1040A00009F49F5FF801EC0DFD1D90830894C11C7D
:1040B000D11C06C0F401EF0DF11D9083F39401C0F3
:1040C000FF2480E4C816D104C9F483EE94E0B5015E
:1040D000A8010E94C2110894A11CB11C00D000D0FC
:1040E000EDB7FEB77182E282548243820E94172BA1
:1040F000CC24DD240F900F900F900F90FFEFAF16A0
:10410000B10409F00CF498CFC85BDF4F0FB6F894F8
:10411000DEBF0FBECDBFCF91DF911F910F91FF90FA
:10412000EF90DF90CF90BF90AF909F908F907F9057
:104130005F904F9008959F92AF92BF92CF92DF927F
:10414000EF92FF920F931F93DF93CF93CDB7DEB71C
:10415000CC57D0400FB6F894DEBF0FBECDBF00E005
:104160004DE0E42EF12CEC0EFD1E5E010894A11C26
:10417000B11C9924939435E1C32ED12CCC0EDD1EB5
:104180000CC186EC94E00E94CB2B182F8091760511
:10419000882391F41A3011F01D3031F480917705A5
:1041A0008F5F8093770502C0109277058091770525
:1041B000833011F40E94C01F80E0612FA701950198
:1041C0000E94DA1C882309F4E8C010927905109245
:1041D0007805909276058C89883109F447C0893139
:1041E00030F4882359F0813009F0D6C029C08E31CF
:1041F00009F4ADC0833209F0CFC0C8C090927A05EF
:104200008A8980937B058B8980937C05F601848164
:1042100080937D05268120931705F7018085918580
:10422000A285B3858093130590931405A09315057B
:10423000B0931605221F2227221F20930305ACC02E
:10424000F7016689778980E090E00E94E43620E0FB
:1042500030E04AE754E40E944B3660938B0370933E
:104260008C0380938D0390938E0396C0F701608931
:104270007189828993890E94E63620E836E948E10F
:104280005BE40E944B36609355057093560580930E
:10429000570590935805F701648975898689978930
:1042A0000E94E63620E836E948E15BE40E944B369E
:1042B0006093590570935A0580935B0590935C0554
:1042C000F701608D718D828D938D0E94E63620E01E
:1042D00030E04AE754E40E944B36609366057093E1
:1042E00067058093680590936905F70160A171A146
:1042F00080E090E00E94E43620E030E048EC52E4B8
:104300000E944B3660930F05709310058093110542
:1043100090931205F70184A1809304058D89809301
:1043200007058E89809308058F8980930905888DFC
:1043300080930A05898D80930B058A8D80930C05E7
:104340008B8D80930D058C8D80930E0525C0F70114
:10435000608971898289938921EE3EE245E652E4C3
:104360000E9415380E94B33660930505F7016485F5
:1043700075858685978521EE3EE245E652E40E94EA
:1043800015380E94B3366093060506C0F701858D87
:1043900080937F031092800301E086EC94E00E94FA
:1043A0009B2B181619060CF4ECCE802FC458DF4F47
:1043B0000FB6F894DEBF0FBECDBFCF91DF911F9136
:1043C0000F91FF90EF90DF90CF90BF90AF909F90B4
:1043D00008952F923F924F925F926F927F928F92A9
:1043E0009F92AF92BF92CF92DF92EF92FF920F9384
:1043F0001F93DF93CF93CDB7DEB762970FB6F894D4
:10440000DEBF0FBECDBF83EE94E00E94D712809135
:104410004805882341F0609147058091460590E06A
:1044200070E00E94B7170E949B2080914B05882363
:1044300009F462C003EE14E0C8016091490540919F
:104440004A050E94B211C8010E948A1200D000D011
:10445000ADB7BEB712961C930E93119783E594E007
:1044600014969C938E9313970E94172B00D000D024
:10447000EDB7FEB73196ADB7BEB712961C930E934B
:1044800011978DE092E09383828380918B039091CA
:104490008C03A0918D03B0918E0384839583A683B2
:1044A000B7830E94282BEDB7FEB738960FB6F89465
:1044B000FEBF0FBEEDBFC8010E946E12E0908B03DD
:1044C000F0908C0300918D0310918E03C801B70109
:1044D000209182033091830340918403509185039E
:1044E0000E944436882344F4E0928203F0928303CE
:1044F000009384031093850380914E05882309F46B
:104500008FC003EE14E0C80160914C0540914D0549
:104510000E94B211C8010E948A128FE00E948F345B
:10452000A0E0B0E0BC01CD010E94E4362AE939E9FF
:1045300049E451E40E94153820911D0530911E0573
:1045400040911F05509120050E94153820E030EC65
:104550004FE754E40E944B3660938F0370939003AF
:10456000809391039093920361E070E080E090E08B
:104570000E94F83300D000D0ADB7BEB712961C939E
:104580000E93119781E594E014969C938E93139764
:104590000E94172B00D000D0EDB7FEB73196ADB713
:1045A000BEB712961C930E9311978DE092E0938301
:1045B000828380918F0390919003A0919103B09199
:1045C000920384839583A683B7830E94282BEDB73B
:1045D000FEB738960FB6F894FEBF0FBEEDBFC80108
:1045E0000E946E12E0908F03F0909003009191036F
:1045F00010919203C801B70120918603309187037F
:1046000040918803509189030E944436882344F4E2
:10461000E0928603F0928703009388031093890346
:1046200080915105882309F49AC083EE94E060914B
:104630004F05409150050E94B21183EE94E00E9414
:104640008A1280918A03882309F03FC08EE00E947D
:104650008F34AA2797FDA095BA2FBC01CD0124E67F
:1046600030E040E050E00E9441397B018C016091D4
:10467000250570912605809127059091280520E059
:1046800030EC4FE754E40E9415380E94B836E61A21
:10469000F70A080B190B6091210570912205809192
:1046A00023059091240520E030EC4FE754E40E946C
:1046B00015380E94B8369B01AC01C801B7010E94B1
:1046C00073393093800320937F0320917F033091CF
:1046D000800303EE14E025363105ACF000D000D0A5
:1046E000ADB7BEB712961C930E93119784E192E07A
:1046F00014969C938E9313970E94282B0F900F90E3
:104700000F900F901CC000D000D000D0EDB7FEB7C6
:104710003196ADB7BEB712961C930E9311978EE1EA
:1047200092E093838283358324830E94282BEDB704
:10473000FEB736960FB6F894FEBF0FBEEDBF83EE00
:1047400094E00E946E1220917F033091800380914B
:10475000810390E02817390714F420938103809196
:104760005405882309F4F0C08090550590905605B3
:10477000A0905705B0905805C0905905D0905A05A3
:10478000E0905B05F0905C0503EE14E0C8016091D9
:104790005205409153050E94B211C8010E948A122D
:1047A00000D000D0ADB7BEB712961C930E931197F0
:1047B0008EE494E014969C938E9313970E94172B8B
:1047C000809104050F900F900F900F90823048F465
:1047D00000D000D0EDB7FEB71283018385E292E0EE
:1047E0001BC0823079F400D000D0ADB7BEB71296AE
:1047F0001C930E9311978CE292E014969C938E93E7
:1048000013970CC0833081F400D000D0EDB7FEB711
:104810001283018383E392E0948383830E94282B95
:104820000F900F900F900F9080910405823038F117
:1048300080913905882319F581E0809339058091AD
:10484000550590915605A0915705B0915805809354
:10485000310590933205A0933305B09334058091D0
:10486000590590915A05A0915B05B0915C05809324
:10487000350590933605A0933705B09338056091C0
:1048800055057091560580915705909158052091D6
:10489000590530915A0540915B0550915C050E9485
:1048A000301483EE94E00E946E1289829A82AB8269
:1048B000BC82CD82DE82EF82F88620913105309174
:1048C0003205409133055091340560913505709162
:1048D00036058091370590913805A980BA80CB8044
:1048E000DC80ED80FE800F8118850E9472167B01AE
:1048F0008C0120E030E040E050E00E944436882304
:1049000019F1C801B7010E94B336CB0177FF03C08C
:10491000909581959F4F9C01442737FD4095542FDA
:1049200080912D0590912E05A0912F05B091300515
:10493000820F931FA41FB51F80932D0590932E0502
:10494000A0932F05B093300580915F05882309F46B
:104950008EC0B3EE8B2EB4E09B2EC40160915D053A
:1049600040915E050E94B211C4010E948A122091FA
:104970000705309108054091090550910A0560919D
:104980000B0570910C0580910D0590910E05A0E826
:10499000AA2EF1E5BF2ECC24C394DD24EE24FF24FF
:1049A00000E010E00E94110BF22EE32ED42EC52E53
:1049B0002DB73EB7285030400FB6F8943EBF0FBE1B
:1049C0002DBF0DB71EB70F5F1F4FADB7BEB7129605
:1049D0009C928E9211978AE392E0F80193838283EE
:1049E0006F2D7E2D842F952F20E13EE040E050E09A
:1049F0000E947339D80114962D933D934D935C9387
:104A000017970E94282B0DB71EB70F5F1F4FEDB7EA
:104A1000FEB79282818280E492E0D80113969C9343
:104A20008E9312976F2D7E2D8D2D9C2D2CE330E0D3
:104A300040E050E00E947339CA01B9012CE330E034
:104A400040E050E00E947339F801648375838683E7
:104A500097830E94282B2DB73EB7285F3F4F0FB694
:104A6000F8943EBF0FBE2DBFC4010E946E1280910C
:104A70006205882309F43DC18091030590914205A8
:104A8000882331F1992341F58091070580933A05F8
:104A90008091080580933B058091090580933C0532
:104AA00080910A0580933D0580910B0580933E051A
:104AB00080910C0580933F0580910D058093400502
:104AC00080910E058093410581E08093420504C0EA
:104AD000992311F01092420503EE14E0C801609191
:104AE0006005409161050E94B211C8010E948A12BE
:104AF00020913A0540913B0550913C05F0913D05D0
:104B0000B0913E05F0903F05E09040057090410562
:104B1000822F842B852B8F2B8B2B8F298E298729F6
:104B2000A9F400D000D0ADB7BEB712961C930E9377
:104B3000119786E492E014969C938E9313970E94AB
:104B4000282B0F900F900F900F90CFC080910705EA
:104B5000909108056091090570910A05E0910B0597
:104B6000A0910C0510910D0500910E05382F321BF8
:104B70003A8B31E02A89821708F030E0892F841BB4
:104B800041E0981708F040E0982F931B998B91E033
:104B90002989821708F090E0492B862F851B51E068
:104BA000681708F050E0582E541A91E0851508F067
:104BB00090E0592B872F8F1B61E0781708F060E099
:104BC000482E451A91E0841508F090E0692B8E2F4D
:104BD0008B1B71E0E81708F070E0282E261A91E090
:104BE000821508F090E0792B9A2F9F1981E0A91780
:104BF00008F080E0392E371A21E0931508F020E004
:104C0000822B912F9E1921E0191708F020E0692EC0
:104C1000681A81E0961508F080E0282B0719702E9D
:104C2000721A8DB79EB708970FB6F8949EBF0FBE45
:104C30008DBF8DB69EB60894811C911CE3EEF4E006
:104C4000ADB7BEB71296FC93EE9311978DE492E048
:104C5000D40113969C938E9312972A893989452DF6
:104C6000542DB101C301ECE3AE2EBB24CC24DD24D2
:104C7000EE24FF2400E010E00E949C04C901BA0168
:104C8000F40124839583468377830E94282B8DB675
:104C90009EB60894811C911CE3EEF4E0ADB7BEB75C
:104CA0001296FC93EE93119784E592E0D40113964B
:104CB0009C938E9312972A893989452D542DB101E1
:104CC000C3010E94110BC901BA01F4012483958329
:104CD000468377830E94282B2DB73EB7285F3F4F2E
:104CE0000FB6F8943EBF0FBE2DBF83EE94E00E9436
:104CF0006E1280916505882309F462C003EE14E00A
:104D0000C80160916305409164050E94B211C80119
:104D10000E948A1200D000D0ADB7BEB712961C9385
:104D20000E9311978CE494E014969C938E931397B2
:104D30000E94172B00D000D0EDB7FEB73196ADB76B
:104D4000BEB712961C930E93119789E592E0938358
:104D500082838091660590916705A0916805B09166
:104D6000690584839583A683B7830E94282BEDB7BA
:104D7000FEB738960FB6F894FEBF0FBEEDBFC80160
:104D80000E946E12E0906605F0906705009168053C
:104D90001091690560912B0570912C0580E090E0E1
:104DA0000E94E436A80197010E944436882344F407
:104DB000C801B7010E94B83670932C0560932B058B
:104DC00080910305909143058823B1F09923C1F4A4
:104DD0008091660590916705A0916805B09169057D
:104DE0008093190590931A05A0931B05B0931C0599
:104DF00081E08093430504C0992311F0109243058C
:104E000053EE852E54E0952EC40160916A054091C1
:104E10006B050E94B211C4010E948A1200D000D01A
:104E2000ADB7BEB712969C928E9211978AE494E029
:104E300014969C938E9313970E94172B00D000D04A
:104E40000DB71EB70F5F1F4FEDB7FEB7928281827D
:104E500089E592E0D80113969C938E931297609106
:104E600066057091670580916805909169052091AC
:104E7000190530911A0540911B0550911C050E949F
:104E80007D35F80164837583868397830E94282B80
:104E90002DB73EB7285F3F4F0FB6F8943EBF0FBE09
:104EA0002DBFC4010E946E1280916F05882309F402
:104EB0007AC08091550590915605A0915705B09103
:104EC000580589879A87AB87BC878091590590914F
:104ED0005A05A0915B05B0915C058D879E87AF87D1
:104EE000B88B2091310530913205409133055091B6
:104EF00034056091350570913605809137059091A4
:104F00003805A984BA84CB84DC84ED84FE840F85C3
:104F100018890E9472167B018C01C40160916D0595
:104F200040916E050E94B211C4010E948A128DB791
:104F30009EB708970FB6F8949EBF0FBE8DBFEDB712
:104F4000FEB73196ADB7BEB712969C928E9211976E
:104F50008FE592E093838283E482F5820683178350
:104F60000E94282BEDB7FEB738960FB6F894FEBF17
:104F70000FBEEDBFC4010E946E12609129057091B1
:104F80002A0580E090E00E94E436A80197010E9483
:104F90004436882344F4C801B7010E94B8367093A0
:104FA0002A056093290580917205882309F40EC1B2
:104FB0008091030503EE14E0882301F5C801609198
:104FC0007005409171050E94B211C8010E948A12B9
:104FD00000D000D0ADB7BEB712961C930E931197B8
:104FE0008FE394E014969C938E9313970E94172B53
:104FF0000F900F900F900F90C801E6C0C80160910C
:105000007005409171050E94B211C8010E948A1278
:105010008091130580FD10C000D000D0EDB7FEB721
:105020001283018388E394E0948383830E94172B87
:105030000F900F900F900F908091130580FF16C076
:1050400000D000D083EE94E0ADB7BEB712969C932B
:105050008E93119780E394E014969C938E9313970C
:105060000E94172B0F900F900F900F9080911305B7
:1050700081FF12C000D000D083EE94E0EDB7FEB700
:105080009283818387E294E0948383830E94172B29
:105090000F900F900F900F908091130582FF0DC01D
:1050A00000D000D083EE94E0ADB7BEB712969C93CB
:1050B0008E9311978DE194E01DC083FF0DC000D049
:1050C00000D083EE94E0EDB7FEB79283818383E155
:1050D00094E09483838312C085FF16C000D000D073
:1050E00083EE94E0ADB7BEB712969C938E93119762
:1050F00089E094E014969C938E9313970E94172B4B
:105100000F900F900F900F908091130590911405C0
:10511000A0911505B0911605B6FF12C000D000D0C1
:1051200083EE94E0EDB7FEB79283818383E094E051
:10513000948383830E94172B0F900F900F900F90F2
:105140008091130590911405A0911505B091160555
:10515000B7FF38C0809144059091450503EE14E0F7
:105160000597B8F000D000D0ADB7BEB712961C932B
:105170000E93119781E094E014969C938E9313976D
:105180000E94172B8FEF9FEF909345058093440566
:105190000CC000D000D0EDB7FEB71283018386EFBC
:1051A00093E0948383830E94172B0F900F900F90AE
:1051B0000F90809144059091450501969093450587
:1051C0008093440583EE94E00E946E1280917505F1
:1051D000882309F44DC003EE14E0C8016091730503
:1051E000409174050E94B211C8010E948A122DB725
:1051F0003EB7285030400FB6F8943EBF0FBE2DBFCB
:10520000EDB6FEB60894E11CF11CADB7BEB7129620
:105210001C930E93119787E692E0F70193838283A4
:1052200060910F0570911005809111059091120504
:1052300020E030E040E152E40E94153820E030E008
:1052400040E251E40E944B36D70114966D937D9352
:105250008D939C9317970E94282BEDB7FEB7389635
:105260000FB6F894FEBF0FBEEDBFC8010E946E12CC
:1052700068E770E080E090E00E94F83362960FB635
:10528000F894DEBF0FBECDBFCF91DF911F910F917C
:10529000FF90EF90DF90CF90BF90AF909F908F9056
:1052A0007F906F905F904F903F902F900895EF9276
:1052B000FF920F931F93CF93DF9303EE14E0C80187
:1052C00065E045E00E94B211C8010E948A1200D038
:1052D00000D0ADB7BEB712961C930E93119781ED17
:1052E00094E014969C938E9313970E94172B0F9023
:1052F0000F900F900F90C8010E946E12C80165E0D8
:1053000047E00E94B211C8010E948A1200D000D06A
:10531000EDB7FEB7128301838FEA94E09483838311
:105320000E94172B0F900F900F900F90C8010E94B2
:105330006E12C80166E143E00E94B211C8010E94EA
:105340008A1200D000D0ADB7BEB712961C930E9350
:1053500011978FE692E014969C938E9313970E9478
:10536000282BEDB7FEB71283018382E792E0948386
:1053700083830E94282BADB7BEB712961C930E9361
:10538000119785E792E014969C938E9313970E9451
:10539000282BEDB7FEB71283018388E792E0948350
:1053A00083830E94282B0F900F900F900F90C801BD
:1053B0000E946E12C80165E04AE00E94B211C80165
:1053C0000E948A1200D000D0ADB7BEB712961C93CF
:1053D0000E9311978EE994E014969C938E931397F5
:1053E0000E94172B0F900F900F900F90C8010E94F2
:1053F0006E12CAE0D0E08BE7E82E82E0F82E83EE52
:1054000094E067E14AE00E94B21183EE94E00E94CA
:105410008A1200D000D000D0EDB7FEB73196ADB7FC
:10542000BEB711960C93119712961C93F382E282E9
:10543000D583C4830E94282BEDB7FEB736960FB6EE
:10544000F894FEBF0FBEEDBFC8010E946E1268EE59
:1054500073E080E090E00E94F8332197CC2379F646
:10546000C8010E94D71202C00E944B1B0E949B20C1
:105470008823D1F3DF91CF911F910F91FF90EF908F
:1054800008950F931F930E949B2080910005909197
:1054900001058130910509F503EE14E0C8010E9471
:1054A000D712C80169E046E00E94B211C8010E940B
:1054B0008A1200D000D0EDB7FEB71283018389E0D5
:1054C00095E0948383830E94172B0F900F900F9089
:1054D0000F90C8010E946E12FFCF009789F40E94BE
:1054E000E92180910305882339F4809102058823FE
:1054F00089F00E94F2180EC081E0809302050AC074
:10550000029741F40E94111980910305882311F03C
:105510000E94FD1885EF94E00E942E321F910F919A
:10552000089584E061E00E94B13481E161E00E946D
:10553000B13482E161E00E94B13483E161E00E9414
:10554000B13489E061E00E94B13488E061E00E94FA
:10555000B13486E061E00E94B13487E160E00E94EE
:10556000B13488E160E00E94B1340895EF92FF9277
:105570000F931F930E94912A80E00E948C3406ECC6
:1055800014E0C80140E052EC61E070E00E94392B69
:1055900010930E0600930D0686E061E00E94F03441
:1055A00083EE94E00E940113C8010E949B2B95EFAB
:1055B000E92E94E0F92EC70166E079E120EC34EDA4
:1055C00041E050E001E00E94E031C7010E94463214
:1055D0000E94761B0E9457290E94AD1B1F910F91BC
:1055E000FF90EF9008956EBD0DB407FEFDCF8EB510
:1055F00008958DE061E00E94B1348BE061E00E948B
:10560000B1348CE060E00E94B1348AE061E00E9435
:10561000B1341CBC80E58CBD8DB58EB508958AEF84
:1056200095E00E94F92A08958FEF9FE70895DF9390
:10563000CF93CDB7DEB7FE0139968D819E8161E0B3
:105640004F8158859F010E94B82DCF91DF91089519
:10565000DF93CF93CDB7DEB7FE0139968D819E8162
:1056600060E04F8158859F010E94B82DCF91DF9156
:1056700008950F931F93DC01ED91FC910288F3894B
:10568000E02D20E030E000E010E009951F910F913F
:1056900008958F92AF92CF92EF92FF920F931F9344
:1056A000DF93CF93CDB7DEB7FC011382128288EE71
:1056B00093E0A0E0B0E084839583A683B78380EB7A
:1056C00094E0918380835587448737872687118BA1
:1056D000008BF38AE28AC48AA58A868A70E0CB01AD
:1056E00023E0880F991F2A95E1F79C0125503A4F36
:1056F000308F278B8D5F994F928F818F81E090E063
:1057000002C0880F991F6A95E2F720910B06282B9B
:1057100020930B06CF0140E051EE60E070E00E9464
:10572000392BCF91DF911F910F91FF90EF90CF9088
:10573000AF908F900895FC01838D882319F42FEF8B
:105740003FEF0DC00788F08DE02D208131818281EF
:105750009381281B390B8481958128233923C90122
:105760000895FC01838D882319F42FEF3FEF11C0BA
:10577000018CF28DE02D2081318182819381281B63
:10578000390B2095309584819581282339232F5F0B
:105790003F4FC9010895FC01838D882361F0A789DB
:1057A000B08D2D913C91119712968D919C911397EC
:1057B0002817390721F44FEF5FEFCA0108951296B9
:1057C0008D919C9113971696ED91FC911797E80F88
:1057D000F91F408112968D919C9113970196149612
:1057E0002D913C9115978223932313969C938E932E
:1057F000129750E0E2CFFC01838D882351F0078897
:10580000F08DE02D20813181828193812817390725
:1058100021F42FEF3FEFC901089582819381068023
:10582000F781E02DE80FF91F8081282F30E0F3CFBA
:10583000DC015796ED91FC91589782819381918379
:1058400080835996ED91FC915A9780819181938341
:1058500082830895DC015B968C915B978823A9F184
:105860005996ED91FC915A97208131812F5F3F4FDE
:1058700084819581282339235C968C915C978823B9
:1058800029F08281938128173907F9F08281938169
:1058900028173907D9F3808191810680F781E02D9F
:1058A000E80FF91F60835996ED91FC915A97318367
:1058B00020835296ED91FC915397808156969C914E
:1058C000892B808321E030E002C020E030E0C90174
:1058D0000895CF93DF93EC011B821A828A819B810A
:1058E000998388831D821C828E819F81009721F07D
:1058F0000E940A331F821E82DF91CF9108950F9379
:105900001F938C01DC015296ED91FC9153972081FD
:1059100056968C91569755969C915597892B8095C4
:105920008223808357968D919C9158970E94692C71
:10593000F801818D928D0E94692CD8015B961C9292
:105940001F910F9108950F931F93CF93DF938C01B5
:10595000FC0113821282828193819183808341E0D2
:10596000A1E0B0E001C04F5FFD01042E02C0EE0FC8
:10597000FF1F0A94E2F79B0182E06130780710F084
:1059800020E032E0E217F30770F3C1E0D0E002C09C
:10599000CC0FDD1F4A95E2F72197F8012681378168
:1059A0002115310541F0848195818C179D0789F07F
:1059B000C9010E940A33F801D583C483CE01019640
:1059C0000E946D329C01F8019783868380E0232B2F
:1059D00009F081E0DF91CF911F910F910895AF926F
:1059E000BF92CF92DF92EF92FF920F931F93CF93CC
:1059F000DF937C015A016B01E901DC015B968C911C
:105A00005B978823F1F02115310539F45796ED9114
:105A1000FC915897C481D58121960115110549F44F
:105A2000D7015996ED91FC915A97048115810F5F2A
:105A30001F4FD701ED91FC910088F189E02DC7013E
:105A40000995F7018789908D209711F4C0E8D0E07F
:105A5000BE010E94A32C882381F0D70159968D9115
:105A60009C915A970115110511F400E110E0B8015D
:105A70000E94A32C882309F04DC0D701ED91FC9121
:105A80000088F189E02DC701099567C0D7015096BC
:105A9000ED91FC915197B0E0AB16B1EEBB06B0E0D2
:105AA000CB06B0E0DB0609F454C081E090E0D701FA
:105AB00054960C9002C0880F991F0A94E2F78083D5
:105AC00060E079E08DE390E0A60195010E949539B0
:105AD0002150304040405040CA01B90122E030E03E
