:100000000C9462000C948A000C948A000C948A0070
:100010000C948A000C948A000C948A000C948A0038
:100020000C948A000C948A000C948A000C948A0028
:100030000C948A000C948A000C948A000C948A0018
:100040000C94E1020C948A000C9451040C949F04CB
:100050000C948A000C948A000C948A000C948A00F8
:100060000C948A000C948A000000000024002700F1
:100070002A0000000000250028002B0000000000DE
:1000800023002600290004040404040404040202DA
:100090000202020203030303030301020408102007
:1000A0004080010204081020010204081020000012
:1000B0000007000201000003040600000000000029
:1000C00000000B0611241FBECFEFD8E0DEBFCDBF6E
:1000D00011E0A0E0B1E0E6E2FEE002C005900D9282
:1000E000A634B107D9F713E0A6E4B1E001C01D9230
:1000F000A834B107E1F710E0C4ECD0E004C02297C7
:10010000FE010E940D07C23CD107C9F70E9461069B
:100110000C9411070C94000080918502813311F436
:1001200090E801C090E080918602813309F4905CF0
:1001300080918702813309F4905E80918802813337
:1001400009F4905F80918902813309F4985F80916E
:100150008A02813309F49C5F80918B02813309F418
:100160009E5F80918C02813309F49F5F892F0895EF
:10017000CF93DF93C0918F02D091900286E060E030
:100180000E94FC031EBC0DB407FEFDCF8EB51EBC45
:100190000DB407FEFDCF8EB589E08EBD0DB407FE10
:1001A000FDCF8EB5CEBD0DB407FEFDCF8EB580E080
:1001B00090E04AE03BE0282FFC01EB5BFD4FE08143
:1001C0004EBD0DB407FEFDCF5EB52EBD0DB407FECE
:1001D000FDCF2EB53EBD0DB407FEFDCF2EB5EEBD55
:1001E0000DB407FEFDCF2EB501968633910519F7A4
:1001F00088E08EBD0DB407FEFDCF8EB580EA8EBDC2
:100200000DB407FEFDCF8EB580EA8EBD0DB407FE9E
:10021000FDCF0EB405FCF9CF1EBC0DB407FEFDCF1B
:100220008EB58CE08EBD0DB407FEFDCF8EB586E099
:1002300061E00E94FC03DF91CF910895CF93DF939B
:10024000C0919302D091940286E060E00E94FC038A
:1002500084E08EBD0DB407FEFDCF8EB584E08EBD6B
:100260000DB407FEFDCF8EB586E061E00E94FC0371
:1002700086E060E00E94FC031EBC0DB407FEFDCFCB
:100280008EB51EBC0DB407FEFDCF8EB584E08EBDCD
:100290000DB407FEFDCF8EB581E08EBD0DB407FE17
:1002A000FDCF8EB585E08EBD0DB407FEFDCF8EB5BA
:1002B0001EBC0DB407FEFDCF8EB586E08EBD0DB41D
:1002C00007FEFDCF8EB58CE38EBD0DB407FEFDCFCE
:1002D0008EB580E090E027E010C0FC01EA5BFE4FA5
:1002E000E0812EBD0DB407FEFDCF3EB5EEBD0DB4D1
:1002F00007FEFDCF3EB501962197209771F787E065
:100300008EBD0DB407FEFDCF8EB58FEF8EBD0DB443
:1003100007FEFDCF8EB51EBC0DB407FEFDCF8EB51A
:100320008CE08EBD0DB407FEFDCF8EB586E061E09A
:100330000E94FC03DF91CF910895CF93DF9386E273
:1003400093E00E946105181619060CF042C086E27F
:1003500093E00E9492059093920280939102809183
:100360009102909192028D30910539F08D30910576
:1003700084F1C097029768F51DC080918D02883086
:1003800009F079C080918502803329F0809185023F
:10039000813309F070C080918E02C82FD0E00E9496
:1003A0008C00CB5BDD4F888380918E028F5F8093C2
:1003B0008E0261C0E0918D02F0E0809191029091F7
:1003C0009202EB57FD4F808380918D028F5F809367
:1003D0008D0280918E02803469F40E94B8001092E0
:1003E0008E0280918F0290919002019690939002DC
:1003F00080938F0280918F02909190028050914063
:10040000E9F51092900210928F0286E060E00E945F
:10041000FC031EBC0DB407FEFDCF8EB582E08EBD81
:100420000DB407FEFDCF8EB586E061E00E94FC03AF
:1004300064EF71E080E090E00E94290380E090E0AA
:10044000FC01EA5BFE4F808301968F3F9105C1F767
:1004500090939402809393020E941E0186E293E09F
:1004600060E071E00E94D60686E293E061E071E010
:100470000E94D60603C010928D02ABCFDF91CF91C0
:10048000089586E293E040E056E960E070E00E9463
:10049000DA0486E293E00E94BB058AE061E00E94F4
:1004A000FC0386E061E00E94BD0386E061E00E94FB
:1004B000FC038BE061E00E94BD038CE060E00E94E1
:1004C000BD038DE061E00E94BD0382E060E00E9418
:1004D000BD0380E58CBD8DB58EB56AEF70E080E020
:1004E00090E00E94290386E060E00E94FC031EBCAD
:1004F0000DB407FEFDCF8EB582E08EBD0DB407FEB4
:10050000FDCF8EB586E061E00E94FC0364EF71E0F0
:1005100080E090E00E94290386E060E00E94FC03F6
:1005200080E192E08EBD0DB407FEFDCF2EB59EBDDD
:100530000DB407FEFDCF2EB58F5F8D3199F71EBC30
:100540000DB407FEFDCF8EB588E08EBD0DB407FE5D
:10055000FDCF8EB586E061E00E94FC03109292020E
:1005600010929102109294021092930210928D02B6
:1005700010928E021092900210928F0280E090E012
:10058000FC01EA5BFE4F808301968F3F9105C1F726
:1005900090939402809393020E941E0186E293E05E
:1005A00069E171E00E94D60686E293E060E071E0C6
:1005B0000E94D60664E670E080E090E00E94290385
:1005C00008951F920F920FB60F9211242F933F930D
:1005D0008F939F93AF93BF938091990290919A02CA
:1005E000A0919B02B0919C0230919D020196A11DA9
:1005F000B11D232F2D5F2D3720F02D570196A11D02
:10060000B11D20939D028093990290939A02A0932A
:100610009B02B0939C028091950290919602A091CA
:100620009702B09198020196A11DB11D8093950289
:1006300090939602A0939702B0939802BF91AF91C6
:100640009F918F913F912F910F900FBE0F901F9010
:1006500018959B01AC017FB7F89480919502909119
:100660009602A0919702B091980266B5A89B05C02A
:100670006F3F19F00196A11DB11D7FBFBA2FA92FA1
:10068000982F8827860F911DA11DB11D62E0880F4C
:10069000991FAA1FBB1F6A95D1F7BC012DC0FFB7D8
:1006A000F8948091950290919602A0919702B09152
:1006B0009802E6B5A89B05C0EF3F19F00196A11D71
:1006C000B11DFFBFBA2FA92F982F88278E0F911D1C
:1006D000A11DB11DE2E0880F991FAA1FBB1FEA955B
:1006E000D1F7861B970B885E9340C8F221503040AB
:1006F0004040504068517C4F21153105410551055E
:1007000071F60895789484B5826084BD84B5816063
:1007100084BD85B5826085BD85B5816085BDEEE609
:10072000F0E0808181608083E1E8F0E010828081E8
:1007300082608083808181608083E0E8F0E0808156
:1007400081608083E1EBF0E0808184608083E0EB76
:10075000F0E0808181608083EAE7F0E0808184605E
:1007600080838081826080838081816080838081BA
:10077000806880831092C1000895CF93DF93482F43
:1007800050E0CA0186569F4FFC0134914A575F4F93
:10079000FA018491882369F190E0880F991FFC0188
:1007A000E859FF4FA591B491FC01EE58FF4FC59158
:1007B000D491662351F42FB7F8948C91932F909590
:1007C00089238C93888189230BC0623061F42FB711
:1007D000F8948C91932F909589238C938881832B07
:1007E00088832FBF06C09FB7F8948C91832B8C937E
:1007F0009FBFDF91CF910895482F50E0CA018255E5
:100800009F4FFC012491CA0186569F4FFC01949191
:100810004A575F4FFA013491332309F440C0222331
:1008200051F1233071F0243028F42130A1F022302E
:1008300011F514C02630B1F02730C1F02430D9F4BE
:1008400004C0809180008F7703C0809180008F7DED
:100850008093800010C084B58F7702C084B58F7DEF
:1008600084BD09C08091B0008F7703C08091B00033
:100870008F7D8093B000E32FF0E0EE0FFF1FEE5866
:10088000FF4FA591B4912FB7F894662321F48C9172
:100890009095892302C08C91892B8C932FBF08954A
:1008A00008951F920F920FB60F9211242F933F932A
:1008B0004F938F939F93EF93FF938091C00082FD9E
:1008C0001DC04091C6002091DE023091DF022F5FF3
:1008D0003F4F2F7330708091E0029091E102281712
:1008E000390771F0E091DE02F091DF02E256FD4F30
:1008F00040833093DF022093DE0202C08091C60065
:10090000FF91EF919F918F914F913F912F910F9078
:100910000FBE0F901F901895E0913203F0913303B2
:10092000E05CFF4F8191919120813181821B930B7B
:100930008F739070892B11F00E94500408951F92BC
:100940000F920FB60F9211242F933F938F939F9383
:10095000EF93FF932091220330912303809124038E
:10096000909125032817390731F48091C1008F7DBC
:100970008093C10014C0E0912403F0912503EE514F
:10098000FD4F2081809124039091250301968F7360
:10099000907090932503809324032093C600FF91C9
:1009A000EF919F918F913F912F910F900FBE0F90DC
:1009B0001F901895AF92BF92DF92EF92FF920F9324
:1009C0001F93CF93DF93EC017A018B01DD2440303C
:1009D00081EE580780E0680780E0780711F0DD2499
:1009E000D39491E0A92EB12CEC89FD89DD2069F02A
:1009F000C50108A002C0880F991F0A94E2F78083FE
:100A000060E079E08DE390E005C0108260E874E872
:100A10008EE190E0A80197010E94E9062150304044
:100A200040405040569547953795279580E12030B6
:100A3000380720F0DD2011F0DD24D6CFE889F989D0
:100A40003083EA89FB89208319A2EE89FF894081DE
:100A500021E030E0C9010C8C02C0880F991F0A9474
:100A6000E2F7482B4083EE89FF894081C9010D8C54
:100A700002C0880F991F0A94E2F7482B4083EE8941
:100A8000FF894081C9010E8C02C0880F991F0A940A
:100A9000E2F7482B4083EE89FF8980810F8C02C0EA
:100AA000220F331F0A94E2F7209528232083DF9139
:100AB000CF911F910F91FF90EF90DF90BF90AF907B
:100AC0000895DC011C96ED91FC911D97E05CFF4FB1
:100AD0002191319180819181281B390B2F733070C6
:100AE000C9010895DC011C96ED91FC911D97E05C15
:100AF000FF4F20813181E054F040DF01AE5BBF4FFA
:100B00008D919C9111972817390719F42FEF3FEF1A
:100B100007C08D919C91E80FF91F8081282F30E04C
:100B2000C9010895DC011C96ED91FC911D97E05CD4
:100B3000FF4F20813181E054F040DF01AE5BBF4FB9
:100B40008D919C9111972817390719F42FEF3FEFDA
:100B500010C08D919C911197E80FF91F20818D9104
:100B60009C91119701968F73907011969C938E9320
:100B700030E0C9010895DC0191968C91919788230A
:100B800039F05496ED91FC915597808186FFF9CF0D
:100B900091961C920895CF93DF93EC01EE85FF852B
:100BA000E05CFF4F20813181E054F0402F5F3F4FE8
:100BB0002F733070DF01AE5BBF4F8D919C91119709
:100BC00028173907D1F3E05CFF4F80819181E05411
:100BD000F040E80FF91F6083EE85FF85E05CFF4F72
:100BE00031832083EE89FF89208181E090E00F8CA2
:100BF00002C0880F991F0A94E2F7282B208381E016
:100C000089A3EC89FD8980818064808381E090E004
:100C1000DF91CF910895109229031092280388EE56
:100C200093E0A0E0B0E080932A0390932B03A0937D
:100C30002C03B0932D038AE391E0909327038093D4
:100C400026038EE992E0909333038093320382EE81
:100C500092E0909335038093340385EC90E0909379
:100C600037038093360384EC90E0909339038093AC
:100C7000380380EC90E090933B0380933A0381EC3F
:100C800090E090933D0380933C0382EC90E090933E
:100C90003F0380933E0386EC90E090934103809362
:100CA000400384E08093420383E08093430387E022
:100CB0008093440385E08093450381E0809346035D
:100CC0000895CF93DF930E9482030E944102CCE8F3
:100CD000D4E00E949D012097E1F30E948C04F9CF9B
:100CE000CF92DF92EF92FF920F931F93CF93DF93F8
:100CF0007C016B018A01C0E0D0E00FC0D6016D918C
:100D00006D01D701ED91FC910190F081E02DC701BB
:100D10000995C80FD91F015010400115110571F731
:100D2000CE01DF91CF911F910F91FF90EF90DF9057
:100D3000CF900895EF92FF920F931F938C01DC01E7
:100D4000ED91FC910190F081E02D6DE009957C0121
:100D5000D801ED91FC910190F081E02DC8016AE08D
:100D600009959C012E0D3F1DC9011F910F91FF9008
:100D7000EF900895CF93DF93EC016115710519F49D
:100D800020E030E00FC0DB010D900020E9F7119763
:100D9000A61BB70BE881F9810280F381E02DAD013C
:100DA00009959C01C901DF91CF910895EF92FF92BF
:100DB0000F931F937C010E94BA068C01C7010E9409
:100DC0009A06080F191FC8011F910F91FF90EF900D
:100DD0000895A1E21A2EAA1BBB1BFD010DC0AA1F7C
:100DE000BB1FEE1FFF1FA217B307E407F50720F094
:100DF000A21BB30BE40BF50B661F771F881F991F0F
:100E00001A9469F760957095809590959B01AC0157
:100E1000BD01CF010895EE0FFF1F0590F491E02D65
:060E20000994F894FFCFD5
:100E260000446F6E6520776974682066696C65207A
:100E3600646F776E6C6F61640052656164792066D9
:100E46006F7220746578742066696C6520646F77AC
:100E56006E6C6F61640000000000CB0570066105D2
:060E660092057205BB05B8
:00000001FF
